:100000000C94CD010C94FE010C94FE010C94FE01A5
:100010000C94FE010C94FE010C94FE010C94FE0164
:100020000C94FE010C94FE010C94FE010C94FE0154
:100030000C94FE010C94FE010C94FE010C94FE0144
:100040000C94FE010C94FE010C94FE010C94FE0134
:100050000C94FE010C94FE010C94FE010C94F70626
:100060000C94FE010C94FE010C94FE010C94FE0114
:100070000C94FE010C94FE010C94FE010C94FE0104
:100080000C94FE010C94FE010C94FE010C94FE01F4
:100090000C94FE010C94FE010C94FE010C94A1073B
:1000A0000C94FE010C94FE010C94FE010C94FE01D4
:1000B0000C94FE010C94FE010C94FE010C94FE01C4
:1000C0000C94FE010C94FE010C94FE010C94FE01B4
:1000D0000C94FE010C94FE010C946B070C944107E8
:1000E0000C94FE010C9436020C94BD0C0C942C0262
:1000F0000C9460020C9432020C941E020C94640264
:100100000C943C020C94EF040C9420050C945802BF
:100110000C9424020C944A020C9440020C94FE04A9
:100120000C9458050C9428020C9412050C9452025D
:100130000C94A5050C94BB080C9444020C944E023C
:100140000C9463020C945C020C94C20400407A107C
:10015000F35A00A0724E18090010A5D4E80000E878
:100160007648170000E40B54020000CA9A3B0000D6
:1001700000E1F505000080969800000040420F0065
:100180000000A08601000000102700000000E80326
:10019000000000006400000000000A0000000000F1
:1001A0000100000000002C76D888DC674F0823DFB0
:1001B000C1DFAE59E1B1B796E5E3E453C63AE65183
:1001C000997696E8E6C28426EB898C9B62ED407CAA
:1001D0006FFCEFBC9C9F40F2BAA56FA5F490055A46
:1001E0002AF75C936B6CF9676DC11BFCE0E40D476B
:1001F000FEF520E6B500D0ED902E0300943577058E
:100200000080841E080000204E0A000000C80C3345
:100210003333330F986E12831141EF8D2114893BD4
:10022000E65516CFFEE6DB18D1844B381BF77C1D54
:10023000901DA4BBE424203284725E228100C9F1A7
:1002400024ECA1E53D2700002100240027002A001E
:100250002D003000330001010000040107010A01F4
:1002600000000B0C030A0D0E0F0908040502000024
:10027000000000000000000000000000000000007E
:100280000000000000000000000000001312110038
:10029000000000000000000000000000000000005E
:1002A000000000000000000000000000000000004E
:1002B00000000000000000002000230026002900AC
:1002C0002C002F003200000100000301060109018B
:1002D0000102102020080810204010204080020158
:1002E000020108040201010204081020408080403D
:1002F000201008040201800402018040201008043C
:1003000002010804020101020408102040800102D9
:100310000408102040800440800480081010204011
:1003200004081020408000002200250028002B0037
:100330002E003100340002010000050108010B010C
:1003400005050505070508080808020202020A0A51
:10035000080804040404010101010101010103036F
:10036000030303030303040707070C0C0C0C0C0C1A
:100370000C0C0202020206060606060606060B0B17
:100380000B0B0B0B0B0B05050508080707040404F2
:100390000A0A0A0A0A0ABB08BD0C11241FBECFEFC5
:1003A000D1E2DEBFCDBF00E00CBF12E0A0E0B2E0C2
:1003B000E4E9FBE200E00BBF02C007900D92AE3310
:1003C000B107D9F723E0AEE3B2E001C01D92AE362B
:1003D000B207E1F711E0CCECD1E000E006C02197D4
:1003E0000109802FFE010E945B14CB3CD10780E005
:1003F0000807A9F70E94AE090C94B8150C940000E8
:100400008250823108F05FC0E82FF0E08827E45F77
:10041000FD4F8F4F0C945B14600264021E02240295
:10042000280263022C02320236023C0240024402DD
:100430004A024E026302520258025C02809180001E
:100440008F77809380000895809180008F7DF9CF11
:1004500080918000877FF5CF8091B0008F77809367
:10046000B00008958091B0008F7DF9CF8091900009
:100470008F77809390000895809190008F7DF9CFC1
:1004800080919000877FF5CF8091A0008F77809337
:10049000A00008958091A0008F7DF9CF8091A000E9
:1004A000877FF5CF809120018F7780932001089579
:1004B000809120018F7DF9CF80912001877FF5CF3A
:1004C00084B58F7784BD089584B58F7DFBCF1F934E
:1004D000CF93DF93282F30E0F901E05AFD4F84914C
:1004E000F901E053FD4FD491F901E05CFC4FC49158
:1004F000CC23A9F0162F81110E940002EC2FF0E00E
:10050000EE0FFF1FEA5DFC4FA591B4918FB7F894F1
:10051000EC91111108C0D095DE23DC938FBFDF91E1
:10052000CF911F910895DE2BF8CF80914E039091CB
:100530004F03892B41F0E0915003F09151039081DA
:1005400081819CBD8DBD809159038F3F19F060E082
:100550000C9467020895809159038F3F19F061E070
:100560000C9467020895CF93DF9390E0FC01E05371
:10057000FD4F2491805C9C4FFC0184918823D1F035
:1005800090E0880F991FFC01EA5BFD4FA591B491A3
:10059000FC01EA5DFC4FC591D49161110EC09FB77B
:1005A000F8948C91E22FE0958E238C932881E2239E
:1005B000E8839FBFDF91CF9108958FB7F894EC91B6
:1005C000E22BEC938FBFF6CF8230910538F0880F85
:1005D000991F880F991F05970197F1F70895CF92FA
:1005E000DF92EF92FF920F931F93CF93DF932091AF
:1005F0004E0330914F03232B79F08EBD0DB407FECF
:10060000FDCFDEB48D2DDF91CF911F910F91FF9023
:10061000EF90DF90CF9008952091560330915703CB
:10062000C1E0232B09F0C0E8CC24C394982F9C236D
:1006300009F0C12CD82F20915203309153034091DF
:1006400054035091550360E271EA87E090E00E9404
:100650003914122FDD2E00E0E22EF12C112319F0B7
:10066000C7010E94E40280915803877F09F054C0BB
:1006700080915B038F3FA1F09D2F9C2381E009F4C3
:1006800080E08C1569F0E0915D03F0915E0380914C
:1006900065039923D9F19081892B8083CC24C3945D
:1006A000E0915F03F0916003808190916703892B53
:1006B0008083112319F0C7010E94E40280915C033A
:1006C0008F3F51F0E0916103F0916203808190913E
:1006D0006603892309F00C2BE0915F03F09160031E
:1006E00090818091670380958923808380915C034A
:1006F0008F3F09F0D02E8091560390915703892B9C
:1007000009F047C0CC0FC111A9CF7CCF9081809553
:1007100089238083C12CC4CFE0915F03F0916003F3
:10072000808190916703892B8083112319F0C70181
:100730000E94E40280915B038F3F61F0E0915D03D2
:10074000F0915E03809165039D2F9C23F1F09081D1
:10075000892B8083E0915F03F09160039081809109
:10076000670380958923808380915C038F3F09F420
:10077000BDCFE0916103F0916203808190916603A7
:10078000892309F4B3CF0C2BB1CF908180958923B5
:10079000E0CFC695B8CFCF93DF93D82FC62F0E9456
:1007A00095028D2F80680E94EF028C2F0E94EF022D
:1007B000DF91CF910C94AB02EF92FF920F931F93B6
:1007C000CF93DF93EC017B018A010E94950288811F
:1007D0000E94EF02E7010E0D1F1DC017D10729F07F
:1007E0008FEF0E94EF028993F8CF0E94AB0281E065
:1007F000DF91CF911F910F91FF90EF900895CF93CC
:10080000DF931F921F92CDB7DEB71A82198241E0A3
:1008100050E0BE016E5F7F4FCE0101960E94DC0367
:100820008A810F900F90DF91CF9108950E94FF036E
:10083000837D682F626080E00C94CB03CF93C82F38
:100840000E94FF03682FCC2329F0606880E0CF91DD
:100850000C94CB036F77FACF3FB7F894809199024D
:1008600090919A02A0919B02B0919C0226B5A89B00
:1008700005C02F3F19F00196A11DB11D3FBFBA2F32
:10088000A92F982F8827BC01CD01620F711D811DF2
:10089000911D42E0660F771F881F991F4A95D1F777
:1008A00008958F929F92AF92BF92CF92DF92EF9274
:1008B000FF924B015C010E942C046B017C010E94A1
:1008C0002C046C197D098E099F09683E73408105CF
:1008D0009105A8F321E0821A9108A108B10888EED9
:1008E000C80E83E0D81EE11CF11C81149104A10400
:1008F000B10429F7FF90EF90DF90CF90BF90AF90B9
:100900009F908F9008950F931F93CF93DF9300D004
:10091000CDB7DEB70E94160481E00E941E046AE093
:1009200070E080E090E00E9451040E94FF03682F75
:10093000606280E00E94CB0361E470E080E090E0C0
:100940000E94510419821A8281E08B8342E050E0B8
:10095000BE016F5F7F4FCE0103960E94DC030981C9
:100960001A8110270127102780E00E941E04C80169
:10097000969587950F900F900F90DF91CF911F91D3
:100980000F910895AF92BF92CF92DF92EF92FF92B4
:100990000F931F93CF93DF936C017B018B01040FA7
:1009A000151FEB015E01AE18BF08C017D10759F043
:1009B0006991D601ED91FC910190F081E02DC60185
:1009C0001995892B79F7C501DF91CF911F910F916F
:1009D000FF90EF90DF90CF90BF90AF900895FC0113
:1009E000538D448D252F30E0842F90E0821B930B94
:1009F000541710F0CF96089501970895FC01918D3A
:100A0000828D981761F0A28DAE0FBF2FB11D5D963C
:100A10008C91928D9F5F9F73928F90E008958FEFDE
:100A20009FEF0895FC01918D828D981731F0828D92
:100A3000E80FF11D858D90E008958FEF9FEF0895E9
:100A4000FC01918D228D892F90E0805C9F4F821B4D
:100A500091098F73992708958FE992E00E942005EC
:100A600021E0892B09F420E0822F0895FC01A48D58
:100A7000A80FB92FB11DA35ABF4F2C91848D90E0C0
:100A800001968F739927848FA689B7892C93A089A3
:100A9000B1898C91837080648C93938D848D98132D
:100AA00006C00288F389E02D80818F7D80830895C0
:100AB000EF92FF920F931F93CF93DF93EC0181E0AE
:100AC000888F9B8D8C8D98131AC0E889F989808155
:100AD00085FF15C09FB7F894EE89FF896083E88988
:100AE000F98980818370806480839FBF81E090E07A
:100AF000DF91CF911F910F91FF90EF900895F62E07
:100B00000B8D10E00F5F1F4F0F731127E02E8C8DA0
:100B10008E110CC00FB607FCFACFE889F9898081E5
:100B200085FFF5CFCE010E943605F1CFEB8DEC0F9E
:100B3000FD2FF11DE35AFF4FF0829FB7F8940B8F02
:100B4000EA89FB8980818062CFCFCF93DF93EC016C
:100B5000888D8823B9F0AA89BB89E889F9898C91A5
:100B600085FD03C0808186FD0DC00FB607FCF7CF61
:100B70008C9185FFF2CF808185FFEDCFCE010E9461
:100B80003605E9CFDF91CF91089580E090E0892B81
:100B900049F080E090E0892B29F00E94000081114B
:100BA0000E94000080E090E0892B49F080E090E016
:100BB000892B29F00E94000081110E94000080E032
:100BC00090E0892B49F080E090E0892B29F00E9489
:100BD000000081110E94000080E090E0892B29F044
:100BE0000E942C0581110C940000089585ED8093DE
:100BF000BC008091BC0084FDFCCF10928902089556
:100C000020916502260F3327331F21323105ECF482
:100C100020918902FC0190E080E0243069F082E0BC
:100C20000895A09165022191AC014B5B5D4FA40F2B
:100C3000B52FB11D2C930196861798F3809165020C
:100C4000680F6093650280E0089581E0089508953B
:100C50008FEF9FEF08958FEF9FEF089580914402EB
:100C600090E09195819591090895CF93DF93CB0101
:100C7000EA01642F0E940006CE01DF91CF91089512
:100C8000CF93DF931F92CDB7DEB7698361E0CE01CA
:100C900001960E94000681E090E00F90DF91CF91D5
:100CA000089590E080E008952F923F924F925F92D6
:100CB0006F927F928F929F92AF92BF92CF92DF926C
:100CC000EF92FF920F931F93CF93DF93EC016A0192
:100CD0007B01688570E090E080E00E94BC124B01CF
:100CE0005C01AC019B01C701B6010E9448122A8138
:100CF0003B814C815D810E94DC112B013C0188818C
:100D000099810E811F810F5F1F4F1F830E83180172
:100D1000220C331C220C331C280E391EA501940111
:100D2000F10160817181828193810E9448129B014F
:100D3000AC01C301B2010E94DB116A837B838C8307
:100D40009D83F101C082D182E282F3828885815045
:100D5000990B0817190710F01F821E82DF91CF919F
:100D60001F910F91FF90EF90DF90CF90BF90AF90C9
:100D70009F908F907F906F905F904F903F902F90BB
:100D80000895FB0101900020E9F73197AF01461B60
:100D9000570BDC01ED91FC910280F381E02D199459
:100DA0001F93CF93DF93EC01162F80919D029091BA
:100DB0009E02DC01ED91FC910190F081E02D6BE150
:100DC000199580919D0290919E02DC01ED91FC911C
:100DD0000190F081E02D612F1995BE0180919D0257
:100DE00090919E02DF91CF911F910C94C1061F92AA
:100DF0000F920FB60F9211242F933F938F939F93CF
:100E0000AF93BF938091950290919602A091970223
:100E1000B09198023091940223E0230F2D3768F1AE
:100E200026E8230F0296A11DB11D20939402809302
:100E3000950290939602A0939702B09398028091A6
:100E4000990290919A02A0919B02B0919C02019606
:100E5000A11DB11D8093990290939A02A0939B02C9
:100E6000B0939C02BF91AF919F918F913F912F9131
:100E70000F900FBE0F901F9018950196A11DB11DE8
:100E8000D4CF1F920F920FB60F9211240BB60F9270
:100E90002F933F934F935F936F937F938F939F9382
:100EA000AF93BF93EF93FF938FE992E00E943605D3
:100EB000FF91EF91BF91AF919F918F917F916F9132
:100EC0005F914F913F912F910F900BBE0F900FBEEE
:100ED0000F901F9018951F920F920FB60F9211242A
:100EE0000BB60F922F938F939F93EF93FF93E09105
:100EF000AF02F091B0028081E091B502F091B602AC
:100F000082FD1DC090818091B8028F5F8F73209108
:100F1000B902821741F0E091B802F0E0E156FD4FCE
:100F2000958F8093B802FF91EF919F918F912F91B0
:100F30000F900BBE0F900FBE0F901F9018958081E1
:100F4000F2CF1F920F920FB60F9211240BB60F9291
:100F50002F933F934F935F936F937F938F939F93C1
:100F6000AF93BF93EF93FF938091B900887F803652
:100F700009F44DC008F040C0883209F4A7C028F534
:100F8000803109F49BC0C8F4882309F4F1C088308B
:100F900009F494C0FF91EF91BF91AF919F918F9110
:100FA0007F916F915F914F913F912F910F900BBE69
:100FB0000F900FBE0F901F901895883109F486C0CE
:100FC000803241F78093880214C0803409F497C0BE
:100FD00040F48033B9F38833E9F68093880285ECD6
:100FE000A8C0803509F481C0883509F490C08834E0
:100FF00089F60E94F605CECF883909F486C038F507
:10100000883729F050F4883611F0803719F683E0DC
:10101000809389021092870255C0883809F475C000
:10102000803919F0803809F0B5CF8091870280327D
:1010300008F06BC0E091870281E08E0F80938702F9
:101040008091BB00F0E0E959FD4F80833BC0803BBD
:1010500039F0D0F4803A09F471C0883A09F09ACF97
:1010600084E0809389021092660210926502F0E09B
:10107000E0E019958091650281110FC081E08093B5
:1010800065021092450209C0803C09F4A8CF883C53
:1010900009F4A5CF883B09F07DCFE091660281E09D
:1010A0008E0F80936602F0E0EB5BFD4F80818093B2
:1010B000BB00909166028091650225C080918E02EE
:1010C0008093BB0085EC8093BC0064CF90918D022F
:1010D00080918C02981728F5E0918D0281E08E0FA7
:1010E00080938D02F0E08081EBCFE0918D0281E072
:1010F0008E0F80938D028091BB00F0E080839091F1
:101100008D0280918C029817E8F285E8DCCFE0919F
:101110008D0281E08E0F80938D028091BB00F0E004
:10112000808380918B02811164CF81E080938A0259
:1011300084EA8093BC00109289022CCF85EC8093C6
:10114000BC001092890280918702803230F4E091D5
:101150008702F0E0E959FD4F10826091870270E04C
:1011600087E692E0F0E0E0E019951092870212CF56
:10117000109288023ECF1092A2021092A10288EE35
:1011800093E0A0E0B0E08093A3029093A402A09328
:10119000A502B093A6028AE092E09093A002809309
:1011A0009F0285E391E09093AC028093AB0284E3CD
:1011B00091E09093AE028093AD0280E391E0909332
:1011C000B0028093AF0281E391E09093B2028093EA
:1011D000B10282E391E09093B4028093B30286E37C
:1011E00091E09093B6028093B5021092B8021092EB
:1011F000B9021092BA021092BB0210924F031092E1
:101200004E03109251031092500380E280935903D1
:1012100087E180935A038FE180935C038EE1809392
:101220005B03E0E6F3E0E491F0E0EE0FFF1FEA5D20
:10123000FC4F859194919093640380936303E0EF56
:10124000F2E0E491E0936803EEE5F3E0E491F0E08E
:10125000EE0FFF1FEA5DFC4F8591949190935E0322
:1012600080935D03EEEEF2E0E491E0936503EFE539
:10127000F3E0E491F0E0EE0FFF1FEA54FD4F85919B
:1012800094919093620380936103EFEEF2E0E49116
:10129000E0936603E7E5F3E0E491F0E0EE0FFF1F73
:1012A000EA5DFC4F859194919093600380935F0376
:1012B000E7EEF2E0E491E093670380E492E4AFE0CC
:1012C000B0E08093520390935303A0935403B093E0
:1012D000550381E090E0909357038093560384E098
:1012E000809358031092690389E080934D0384E250
:1012F00090E00E9463148093450390934603FC01A1
:10130000849611921192119211928E179F07C9F72C
:1013100010924703109248031092490310924A0317
:101320008DE18093440384E790E00E9463148093EE
:101330003C0390933D03FC018C589F4F11921192F6
:1013400011921192E817F907C9F710923E03109213
:101350003F0310924003109241030895CF93DF930F
:10136000CDB7DEB7C054D1090FB6F894DEBF0FBEBB
:10137000CDBF789484B5836084BD85B5836085BD19
:1013800080916E00816080936E0082E08093810086
:1013900080918100816080938100809180008160D4
:1013A000809380008091B10084608093B10080912F
:1013B000B00081608093B000809191008360809341
:1013C0009100809190008160809390008091A100B5
:1013D00083608093A1008091A00081608093A00031
:1013E000809121018360809321018091200181609F
:1013F0008093200187E880937A001092C100809149
:1014000059038F3F41F061E00E94B30261E0809197
:1014100059030E94670280914E0390914F03892BDC
:1014200009F487C2FFB6F89480918F02811127C01A
:10143000E5E7F3E08491E5E0F3E09491E82FF0E054
:10144000EE0FFF1FEA5BFD4FA591B491EC91E923EC
:1014500021F461E085E30E94670261E085E30E9478
:10146000B3028CB580618CBD8CB580648CBD61E0AD
:1014700084E30E94B30261E083E30E94B30280919F
:101480008F028F5F80938F02FFBE81E0809369039C
:101490000E94FF03682F6F7E80E00E94CB0380E0F4
:1014A0000E941E040E94FF03682F6F7B80E00E9451
:1014B000CB0360E086E00E94CB0360E085E00E9401
:1014C000CB036FEF84E00E94CB036FEF83E00E94B9
:1014D000CB030E941604E091AF02F091B00282E0CB
:1014E0008083E091AB02F091AC021082E091AD02FA
:1014F000F091AE028FEC80831092B702E091B302BC
:10150000F091B40286E08083E091B102F091B202E2
:10151000808188698083E091B102F091B20280817C
:101520008F7D808368E172E08FE992E00E94C106BE
:101530008FE992E090939E0280939D02E0919F023A
:10154000F091A0020190F081E02D64E11995809165
:101550009D0290919E02DC01ED91FC910190F08141
:10156000E02D61E1199580919D0290919E02DC0130
:10157000ED91FC910190F081E02D62E01995809150
:101580009D0290919E02DC01ED91FC910190F08111
:10159000E02D6CE0199560E089E10E94B30260E003
:1015A0008BE10E94B30261E08AE20E94B3021E0155
:1015B000B3E32B0E311C80917B00877F80937B00EF
:1015C000E0E4E0937C0080917A00806480937A006C
:1015D00080917A0086FDFCCF60917800709179004F
:1015E000072E000C880B990B0E94BC1220E030E003
:1015F00040EA5BE30E944D13AB01BC018CE393E036
:101600000E94540620E030E040EF50E460913E0339
:1016100070913F0380914003909141030E944D13CC
:101620002AE939E949E750E40E94DB112BE339EA62
:1016300045E85FE30E944D1324EA3DE64CE75DE395
:101640000E94DC1160939002709391028093920249
:10165000909393020E948304BC0190E080E00E947A
:10166000BA1220E030E040E058E30E944D1320E041
:1016700030E047ED53E40E944D1321966CAF7DAFEF
:101680008EAF9FAF21970E948304BC0190E080E061
:101690000E94BA1220E030E040E058E30E944D136F
:1016A00020E030E047ED53E40E944D134B015C0114
:1016B0002FE63DE646EC52EB0E944D1326E133E85F
:1016C00043E957E30E94DC110E94C01322E331E199
:1016D00040E85BE30E94DB112FE735E04BE955EB77
:1016E0000E9448126B017C0120E030E0A9010E94B9
:1016F000481387FF70C020E030E048EC52E4C50199
:10170000B4010E94481220E030E048EC52E40E940C
:101710004D136B017C012BE532E44EE050E40E9456
:101720004D132FE135E042E753E40E94DB112B011A
:101730003C01A7019601C701B6010E944D134B0160
:101740005C0124E338E749E25BE30E944D13A30107
:1017500092010E94DC112B013C01A5019401C701FB
:10176000B6010E944D134B015C0126E03FEE41EAB9
:1017700056E30E944D139B01AC01C301B2010E94CC
:10178000DB112B013C01A5019401C701B6010E94A8
:101790004D134B015C0123E137E142EF52E30E941C
:1017A0004D139B01AC01C301B2010E94DB112B015F
:1017B0003C01A5019401C701B6010E944D132BE322
:1017C00039E947E25FE20E944D13A30192010E94B2
:1017D000DC116B017C01B701A60185E493E00E9456
:1017E000540660913E0370913F03809140039091B5
:1017F0004103810123E045E00E94C60C3F922F92F5
:101800002DE132E03F932F93A1E0B0E0AC0FBD1F7C
:10181000BF93AF930E9488156091900270919102DE
:10182000809192029091930222E045E00E94C60CC2
:101830003F922F92E1E0F0E0EC0FFD1FFF93EF935A
:1018400022E232E03F932F93FF93EF930E9488159B
:1018500060E0CE0101960E94D00622E045E021968C
:101860006CAD7DAD8EAD9FAD21970E94C60C3F92B1
:101870002F92ADE2B2E0BF93AF9321E030E02C0FA6
:101880003D1F3F932F930E948815609147037091ED
:1018900048038091490390914A0322E045E00E9469
:1018A000C60C3F922F9281E090E08C0F9D1F9F937A
:1018B0008F93A2E3B2E0BF93AF939F938F930E9465
:1018C000881564E1CE0101960E94D006EAE8F2E0B4
:1018D0008491EAEFF2E0F490EAE6F3E0E4900FB6E8
:1018E000F894DEBF0FBECDBF70E060E0EE2099F04F
:1018F00081110E940002EE2DF0E0EE0FFF1FEA546E
:10190000FD4FA591B4918C91F82291E080E009F40B
:1019100090E0692F782F31E063278AE20E94670206
:1019200064E670E080E090E00E9451040E94C505EA
:1019300042CE61E080915A030E94B3028091580325
:101940008B7F60E009F061E080915A030E9467029A
:1019500080915B038F3F41F061E00E94B30261E040
:1019600080915B030E94670280915C038F3F09F4C2
:101970008CCD60E00E94B30288CD8091500390919D
:101980005103009711F00C94FF140895EF920F93F8
:101990001F93CF93DF93E80134E047FD34E1042E39
:1019A000000C550B57FF03C0519541955109E32E8B
:1019B000022F242FAE010E94E60ECE01DF91CF91BF
:1019C0001F910F91EF9008952F923F924F925F9247
:1019D0006F927F928F929F92AF92BF92CF92DF923F
:1019E000EF92FF920F931F93CF93DF9300D000D01D
:1019F00000D01F921F92CDB7DEB77C013B018A0158
:101A0000FC0117821682838181FFDDC1CE01019620
:101A10005C01F7019381F30193FD859193FF81911F
:101A20003F01882309F453C1853239F493FD859130
:101A300093FF81913F01853229F4B70190E00E9424
:101A40004D11E7CF912C212C312CFFE1F31538F00B
:101A50008B3211F190F4803209F1833229F137FC95
:101A60003CC020ED280F2A3050F536FE20C08AE019
:101A7000989E200D1124922E06C08D3291F0803355
:101A800071F7689430F8F30193FD859193FF81918C
:101A90003F018111DACF21C0689431F8689432F89F
:101AA000F2CF689433F8EFCF689434F8ECCFEAE0E3
:101AB0002E9E200D1124222E689435F8E4CF8E320C
:101AC00029F436FC04C1689436F8DDCF8C3619F45D
:101AD000689437F8D8CF8836B1F2982F9F7D955407
:101AE0009330E0F08336A1F18337C1F1833509F0FB
:101AF00063C02801F2E04F0E511CF801C080D18074
:101B0000692D70E036FC02C06FEF7FEFC6010E94C6
:101B100037114C01689437F882010AC00C5F1F4FDF
:101B2000FFE3F98388248394912C6501E89437F8C6
:101B300033FE2DC0522C8114910471F5552009F407
:101B400068CFB70180E290E00E944D115A94F6CF21
:101B5000F801808189830E5F1F4FE4CF2801F2E0F6
:101B60004F0E511CF801C080D180692D70E036FC09
:101B700002C06FEF7FEFC6010E9442114C0182014B
:101B8000D5CFB70180E290E00E944D112A9428142D
:101B9000190409F0B0F7CECFF60137FC859137FE76
:101BA00081916F01B70190E00E944D1151105A943C
:101BB000F1E08F1A9108BFCF843619F0893609F009
:101BC00077C0F80137FE6BC060817181828193819B
:101BD0000C5F1F4FF32DFF763F2E97FF09C09095A6
:101BE0008095709561957F4F8F4F9F4F689437F820
:101BF0002AE030E0A5010E947D11C82ECA188C2C65
:101C0000432C36FE0CC0E89440F8C91440F434FE6E
:101C100005C032FC03C0F32DFE7E4F2E892C44FEFE
:101C2000AAC0FE01EC0DF11D8081803309F09CC03B
:101C3000242D297E422E842D8870582E43FCAAC064
:101C400040FEA4C09C2C821418F42C0C922C9818E2
:101C500044FEA6C0B70180E390E00E944D1142FE11
:101C600009C088E790E041FE02C088E590E0B70136
:101C70000E944D11C91408F49FC0CA94D12C9FEF43
:101C8000C91AD90ACA0CDB1CF60182916F01B7018F
:101C900090E00E944D11AC14BD04B1F74FCF6081AC
:101CA0007181072E000C880B990B0E5F1F4F92CF8E
:101CB000D32CE894D4F82AE030E08537E1F1232DE5
:101CC000297FD22E8F36A9F1F0F4883551F1F70132
:101CD000868197812B960FB6F894DEBF0FBECDBFDD
:101CE000DF91CF911F910F91FF90EF90DF90CF90F8
:101CF000BF90AF909F908F907F906F905F904F902C
:101D00003F902F900895803749F0883701F7D4FE2F
:101D100002C06894D2F820E130E00DC06894D4F895
:101D2000F6CF34FE03C0822F8660D82E20E132E049
:101D300002C028E030E0F801D7FE0FC06081718159
:101D4000828193810C5F1F4FA5010E947D11C82ED7
:101D5000CA183D2CE89437F852CF6081718190E029
:101D600080E00E5F1F4FF0CF42FC02C0839463CF30
:101D70008394839460CF842D867809F45CCFF6CF6A
:101D8000B70180E290E00E944D1183948214C0F369
:101D9000512C5ECF522C5818821408F459CFF8CF2A
:101DA000842D867809F466CF8BE241FE80E247FC01
:101DB0008DE2B70190E05CCFB70180E390E00E9434
:101DC0004D119A9457CF8FEF9FEF84CF8F929F92B0
:101DD000AF92BF92CF92DF92EF92FF920F931F9339
:101DE000CF93DF9300D000D000D0CDB7DEB76A012B
:101DF000F22EB02E102FFBE3AF2EA01608F41BE33B
:101E00001F5F012F27E0AE014F5F5F4F0E945F1001
:101E1000BC018981982F9970913009F44EC09BE2E2
:101E2000E1FC04C09E2D9170E0FC49C05E2D507114
:101E3000E82FE87083FF55C084E0911101C083E072
:101E4000EF2DE81B8F1508F0E0E0D6018E2F20E281
:101E50005523C9F1992329F0D6019C93C601019617
:101E60006C0196012D5F3F4FE2FE33C08EE4D60138
:101E70008C9391E411969C93119712968C93D901AF
:101E80008E2F90E281112AC0E20FF32FF11D1082F4
:101E90008EEF9FEF29960FB6F894DEBF0FBECDBF31
:101EA000DF91CF911F910F91FF90EF90DF90CF9036
:101EB000BF90AF909F908F9008959DE2B7CF90E232
:101EC000B5CF2D9381508111FCCFCE0ED11CE0E017
:101ED000C1CF8EE6D6018C9391E6CCCF9D938150F5
:101EE000D1CF482F447082FF3DC084E0911101C0E2
:101EF00083E08F1510F4EF2DE81BD6018E2F20E222
:101F0000552309F1992329F0D6019C93C601019626
:101F10006C0196012D5F3F4FE2FE1BC089E4D601A4
:101F20008C938EE411968C93119786E412968C9381
:101F3000D9018E2F90E2882309F4A6CF9D9381507A
:101F4000FACF2D9381508111FCCFCE0ED11CE0E051
:101F5000D9CF89E6D6018C938EE611968C93119792
:101F600086E6E4CF9B0177FF02C030E020E0A1E0ED
:101F7000B0E0911102C0B0E0A0E0F9013196AE0FDF
:101F8000BF1F8B2C912CBB2009F461C05401EFEFD3
:101F9000AE1ABE0AAA0DBB1DFA161B0619F014F0E4
:101FA0004F2D4A1B511188C0E3FC59C07601A42F64
:101FB000B0E2A1114FC0C40ED11C992309F45BC03B
:101FC00040E0D6011196F60190836D01552309F486
:101FD00048C0012F060F9A81582F507184FF03C00B
:101FE000913309F4015010160CF047C0093008F085
:101FF00008E0EEE2FE2E5B01A01AB1088501919483
:10200000819491082F3F320729F4D601FC92F60102
:1020100031966F016217730794F1021713077CF56D
:10202000DB01A21BB30BAA24A394B12CAC0EBD1EE2
:10203000AA0DBB1D11968C9121503109D601119624
:1020400028153905F4F0F60180836D01DBCFB12C42
:10205000A12CA0CFF701B1937F01A150AACF91117C
:10206000B0CFD601942F50E302C05D9391509111EF
:10207000FCCFC40ED11C40E0ACCF01E0BACF80E36E
:10208000DBCF6217730731F4963388F4953311F47C
:10209000552369F0F6018083FD01842F90E28111C0
:1020A00008C0A40FB11D1C9290E080E0F3CE81E344
:1020B000F1CF91938150F3CF911183CF8ACF283004
:1020C00008F027E03327DA01990F311D87FD916071
:1020D00000966105710539F432602E5F3D9330E35F
:1020E0002A95E1F708959F3F30F08038710561052A
:1020F00009F03C5F3C5F3D93913008F08068911D92
:10210000DF93CF931F930F93FF92EF92192F987F36
:102110009695E92F96959695E90FFF27EA55FE4F7C
:1021200099273327EE24FF24A701E701059008949F
:10213000079428F4360FE71EF81E491F511D660F3D
:10214000771F881F991F0694A1F70590079428F41C
:10215000E70EF81E491F561FC11D770F881F991FD4
:10216000661F0694A1F70590079428F4F80E491FFE
:10217000561FC71FD11D880F991F661F771F069412
:10218000A1F70590079420F4490F561FC71FD81FC9
:10219000990F661F771F881F0694A9F784911095E1
:1021A000177041F0D695C79557954795F794E794E2
:1021B0001A95C1F7ECE4F1E068941590159135910A
:1021C0006591959105907FE27395E118F10A430BB3
:1021D000560BC90BD009C0F7E10CF11E431F561F67
:1021E000C91FD01D7EF4703311F48A95E6CFE894B0
:1021F000015030F0080F0AF40027021708F4202FCE
:102200002395022F7A3328F079E37D932A95E9F715
:1022100010C07D932A9589F6069497956795379512
:1022200017951794E118F10A430B560BC90BD00907
:1022300098F023957E9173957A3308F070E37C9340
:102240002013B8F77E9170617D9330F0839571E330
:102250007D9370E32A95E1F71124EF90FF900F91A1
:102260001F91CF91DF91992787FD90950895FC01EB
:102270000590615070400110D8F7809590958E0FB1
:102280009F1F0895FC016150704001900110D8F724
:10229000809590958E0F9F1F08950F931F93CF9356
:1022A000DF93182F092FEB018B8181FD09C01FEFF0
:1022B0000FEF812F902FDF91CF911F910F910895F4
:1022C00082FF14C02E813F818C819D8128173907A0
:1022D0003CF4E881F981CF010196998388831083CA
:1022E0008E819F8101969F838E83E3CFE885F98558
:1022F000812F1995892BA1F3DACFFA01AA2728306B
:1023000051F1203181F1E8946F936E7F6E5F7F4FC2
:102310008F4F9F4FAF4FB1E03ED0B4E03CD0670F3E
:10232000781F891F9A1FA11D680F791F8A1F911D91
:10233000A11D6A0F711D811D911DA11D20D009F4E1
:1023400068943F912AE0269F11243019305D319323
:10235000DEF6CF010895462F4770405D4193B3E00C
:102360000FD0C9F7F6CF462F4F70405D4A3318F0B3
:10237000495D31FD4052419302D0A9F7EACFB4E064
:10238000A6959795879577956795BA95C9F700971C
:102390006105710508959B01AC010A2E06945795BD
:1023A000479537952795BA95C9F7620F731F841F14
:1023B000951FA01D08955058BB27AA270E94F3110E
:1023C0000C940E130E94001338F00E94071320F0A3
:1023D00039F49F3F19F426F40C94FD120EF4E095A5
:1023E000E7FB0C94F712E92F0E941F1358F3BA175A
:1023F000620773078407950720F079F4A6F50C941B
:1024000041130EF4E0950B2EBA2FA02D0B01B9014C
:1024100090010C01CA01A0011124FF27591B99F05A
:10242000593F50F4503E68F11A16F040A22F232F66
:10243000342F4427585FF3CF469537952795A795B6
:10244000F0405395C9F77EF41F16BA0B620B730B5D
:10245000840BBAF09150A1F0FF0FBB1F661F771FCE
:10246000881FC2F70EC0BA0F621F731F841F48F483
:10247000879577956795B795F7959E3F08F0B0CF0C
:102480009395880F08F09927EE0F979587950895F3
:102490000E945C120C940E130E94071358F00E94C5
:1024A000001340F029F45F3F29F00C94F71251110A
:1024B0000C9442130C94FD120E941F1368F399238D
:1024C000B1F3552391F3951B550BBB27AA27621730
:1024D0007307840738F09F5F5F4F220F331F441F3D
:1024E000AA1FA9F335D00E2E3AF0E0E832D0915071
:1024F0005040E695001CCAF72BD0FE2F29D0660F5E
:10250000771F881FBB1F261737074807AB07B0E8A0
:1025100009F0BB0B802DBF01FF2793585F4F3AF0A6
:102520009E3F510578F00C94F7120C9442135F3FD4
:10253000E4F3983ED4F3869577956795B795F7952C
:102540009F5FC9F7880F911D9695879597F9089514
:10255000E1E0660F771F881FBB1F621773078407B0
:10256000BA0720F0621B730B840BBA0BEE1F88F7BF
:10257000E0950895E89409C097FB3EF49095809506
:10258000709561957F4F8F4F9F4F9923A9F0F92F39
:1025900096E9BB279395F695879577956795B795B7
:1025A000F111F8CFFAF4BB0F11F460FF1BC06F5F9D
:1025B0007F4F8F4F9F4F16C0882311F096E911C0AF
:1025C000772321F09EE8872F762F05C0662371F0D0
:1025D00096E8862F70E060E02AF09A95660F771FE4
:1025E000881FDAF7880F9695879597F9089597F9D8
:1025F0009F6780E870E060E008959FEF80EC0895A9
:1026000000240A94161617061806090608950024D1
:102610000A9412161306140605060895092E03944B
:10262000000C11F4882352F0BB0F40F4BF2B11F4BF
:1026300060FF04C06F5F7F4F8F4F9F4F089557FD1E
:102640009058440F551F59F05F3F71F04795880F20
:1026500097FB991F61F09F3F79F0879508951216B7
:1026600013061406551FF2CF4695F1DF08C0161663
:1026700017061806991FF1CF869571056105089414
:102680000895E894BB2766277727CB0197F908952B
:102690000E94001408F48FEF08950E9460130C94B8
:1026A0000E130E94001338F00E94071320F09523A8
:1026B00011F00C94F7120C94FD1211240C94421397
:1026C0000E941F1370F3959FC1F3950F50E0551FA3
:1026D000629FF001729FBB27F00DB11D639FAA2777
:1026E000F00DB11DAA1F649F6627B00DA11D661FC6
:1026F000829F2227B00DA11D621F739FB00DA11DE7
:10270000621F839FA00D611D221F749F3327A00DA0
:10271000611D231F849F600D211D822F762F6A2F3C
:1027200011249F5750409AF0F1F088234AF0EE0FA1
:10273000FF1FBB1F661F771F881F91505040A9F7CE
:102740009E3F510580F00C94F7120C9442135F3FAA
:10275000E4F3983ED4F3869577956795B795F7950A
:10276000E7959F5FC1F7FE2B880F911D9695879582
:1027700097F9089519F416F40C94FD120C9424148E
:102780000E942713B8F39923C9F3B6F39F57550B4B
:1027900087FF0E9432140024A0E640EA900180588E
:1027A0005695979528F4805C660F771F881F20F058
:1027B00026173707480730F4621B730B840B202958
:1027C00031294A2BA69517940794202531254A27AD
:1027D00058F7660F771F881F20F02617370748071E
:1027E00030F4620B730B840B200D311D411DA0953D
:1027F00081F7B901842F9158880F96958795089590
:10280000990F0008550FAA0BE0E8FEEF1616170601
:10281000E807F907C0F012161306E407F50798F069
:10282000621B730B840B950B39F40A2661F0232B82
:10283000242B252B21F408950A2609F4A140A695FE
:102840008FEF811D811D08959F3F31F0915020F43D
:10285000879577956795B795880F911D969587957C
:1028600097F9089591505040660F771F881FD2F74F
:102870000895A1E21A2EAA1BBB1BFD010DC0AA1FC1
:10288000BB1FEE1FFF1FA217B307E407F50720F0D9
:10289000A21BB30BE40BF50B661F771F881F991F54
:1028A0001A9469F760957095809590959B01AC019D
:1028B000BD01CF010895EE0FFF1F881F8BBF07904A
:1028C000F691E02D19940F931F93CF93DF938230ED
:1028D000910510F482E090E0E0916C03F0916D03BB
:1028E00030E020E0B0E0A0E0309799F42115310508
:1028F00009F44AC0281B390B24303105D8F58A81E8
:102900009B816115710589F1FB0193838283FE012F
:1029100011C0408151810281138148175907E0F0AD
:102920004817590799F4109761F012960C93129773
:1029300013961C933296CF01DF91CF911F910F9187
:10294000089500936C0310936D03F4CF21153105A6
:1029500051F04217530738F0A901DB019A01BD017C
:10296000DF01F801C1CFEF01F9CF90936D038093A0
:102970006C03CDCFFE01E20FF31F819391932250A0
:10298000310939832883D7CF20916A0330916B03B3
:10299000232B41F4209102023091030230936B0308
:1029A00020936A0320910002309101022115310524
:1029B00041F42DB73EB74091040250910502241B0B
:1029C000350BE0916A03F0916B03E217F307A0F473
:1029D0002E1B3F0B2817390778F0AC014E5F5F4F75
:1029E0002417350748F04E0F5F1F50936B03409339
:1029F0006A03819391939FCFF0E0E0E09CCFCF9367
:102A0000DF930097E9F0FC01329713821282A091C4
:102A10006C03B0916D03ED0130E020E01097A1F45C
:102A200020813181820F931F20916A0330916B03C3
:102A30002817390709F061C0F0936B03E0936A032C
:102A4000DF91CF910895EA01CE17DF07E8F54A81BB
:102A50005B819E0141155105B1F7E901FB83EA83D2
:102A600049915991C40FD51FEC17FD0761F480817E
:102A700091810296840F951FE90199838883828151
:102A800093819B838A83F0E0E0E012968D919C9184
:102A900013970097B9F52D913C911197CD010296AE
:102AA000820F931F20916A0330916B032817390717
:102AB00039F6309751F510926D0310926C03B09374
:102AC0006B03A0936A03BCCFD383C283408151813F
:102AD000840F951FC817D90761F44E5F5F4F888137
:102AE0009981480F591F518340838A819B81938329
:102AF00082832115310509F0B0CFF0936D03E09387
:102B00006C039ECFFD01DC01C0CF13821282D7CFB0
:102B10000F931F93CF93DF93CDB7DEB72E970FB6EA
:102B2000F894DEBF0FBECDBF0E891F8986E08C836F
:102B30001A8309838FEF9FE79E838D83AE01465EE4
:102B40005F4F688D798DCE0101960E94E40C2F8134
:102B50003885020F131FF80110822E960FB6F894D5
:102B6000DEBF0FBECDBFDF91CF911F910F910895B2
:102B700011E0CCECD1E000E006C0802FFE010E9405
:102B80005B142196011DCD3CD10780E00807A9F711
:042B9000F894FFCFE7
:102B940000006E038000000000005805C204EF042A
:102BA400A5052005FE0412055465737400563A25E4
:102BB400730025732C20503A2573202000523A25A7
:0E2BC400730025732C20543A25732020000046
:00000001FF
