:020000040000FA
:100000000C9450010C9481010C9481010C94810199
:100010000C9481010C9481010C9481010C94810158
:100020000C9481010C9481010C9481010C94810148
:100030000C9481010C9481010C9481010C94810138
:100040000C9481010C9481010C9481010C94810128
:100050000C9481010C9481010C9481010C945B053A
:100060000C9481010C9481010C9481010C94810108
:100070000C9481010C9481010C9481010C948101F8
:100080000C9481010C9481010C9481010C948101E8
:100090000C9481010C9481010C9481010C9405064F
:1000A0000C9481010C9481010C9481010C948101C8
:1000B0000C9481010C9481010C9481010C948101B8
:1000C0000C9481010C9481010C9481010C948101A8
:1000D0000C9481010C9481010C94CF050C94A5051E
:1000E0000C9481010C94C3010C94D5010C94AB01C8
:1000F0000C94DB010C94C7010C94E0090C94760479
:100100000C94CF030C94C0030C9493030C94A101A2
:100110000C94D1010C941F070C94CD010C94B501E3
:100120000C94B9010C94DF010C94F1030C94E701D9
:100130000C94E3010C94E6010C94E3030C94A701E6
:100140000C94AF010C94BF010C9429040000210011
:10015000240027002A002D00300033000101000098
:10016000040107010A0100000B0C030A0D0E0F0920
:10017000080405020000000000000000000000006C
:10018000000000000000000000000000000000006F
:100190000000131211000000000000000000000029
:1001A000000000000000000000000000000000004F
:1001B000000000000000000000000000000020001F
:1001C0002300260029002C002F003200000100002F
:1001D0000301060109010102102020080810204037
:1001E00010204080020102010804020101020408FB
:1001F0001020408080402010080402018004020189
:1002000080402010080402010804020101020408D1
:100210001020408001020408102040800440800427
:1002200080081010204004081020408000002200A8
:10023000250028002B002E003100340002010000B0
:10024000050108010B010505050507050808080853
:10025000020202020A0A080804040404010101015E
:100260000101010103030303030303030407070759
:100270000C0C0C0C0C0C0C0C0202020206060606FE
:10028000060606060B0B0B0B0B0B0B0B05050508E7
:100290000807070404040A0A0A0A0A0A1F07E009F1
:1002A00011241FBECFEFD1E2DEBFCDBF00E00CBFF7
:1002B00012E0A0E0B2E0E0E1FFE100E00BBF02C02D
:1002C00007900D92A635B107D9F723E0A6E5B2E075
:1002D00001C01D92A037B207E1F711E0CFE4D1E0F1
:1002E00000E006C021970109802FFE010E94190E2F
:1002F000CE34D10780E00807A9F70E94CB070C9401
:10030000760F0C9400008250823108F05FC0E82F15
:10031000F0E08827E157FE4F8F4F0C94190EE30150
:10032000E701A101A701AB01E601AF01B501B901E8
:10033000BF01C301C701CD01D101E601D501DB0138
:10034000DF01809180008F778093800008958091F5
:1003500080008F7DF9CF80918000877FF5CF8091DD
:10036000B0008F778093B00008958091B0008F7DAA
:10037000F9CF809190008F778093900008958091BD
:1003800090008F7DF9CF80919000877FF5CF80918D
:10039000A0008F778093A00008958091A0008F7DAA
:1003A000F9CF8091A000877FF5CF809120018F77D2
:1003B000809320010895809120018F7DF9CF809155
:1003C0002001877FF5CF84B58F7784BD089584B5EC
:1003D0008F7DFBCF1F93CF93DF93282F30E0F90160
:1003E000EA59FE4F8491F901EA52FE4FD491F90186
:1003F000EA5BFD4FC491CC23A9F0162F81110E9416
:100400008301EC2FF0E0EE0FFF1FE45DFD4FA5919F
:10041000B4918FB7F894EC91111108C0D095DE23F8
:10042000DC938FBFDF91CF911F910895DE2BF8CF22
:100430008091500390915103892B41F0E091520338
:10044000F0915303908181819CBD8DBD80915B03B0
:100450008F3F19F060E00C94EA01089580915B03EE
:100460008F3F19F061E00C94EA010895CF93DF9378
:1004700090E0FC01EA52FE4F24918A5B9D4FFC0103
:1004800084918823D1F090E0880F991FFC01E45BF0
:10049000FE4FA591B491FC01E45DFD4FC591D4914F
:1004A00061110EC09FB7F8948C91E22FE0958E23D6
:1004B0008C932881E223E8839FBFDF91CF91089539
:1004C0008FB7F894EC91E22BEC938FBFF6CF82308C
:1004D000910538F0880F991F880F991F059701978C
:1004E000F1F70895CF92DF92EF92FF920F931F934F
:1004F000CF93DF932091500330915103232B79F058
:100500008EBD0DB407FEFDCFDEB48D2DDF91CF91F2
:100510001F910F91FF90EF90DF90CF900895209161
:10052000580330915903C1E0232B09F0C0E8CC24D3
:10053000C394982F9C2309F0C12CD82F20915403E9
:1005400030915503409156035091570360E271EA90
:1005500087E090E00E94F70D122FDD2E00E0E22EE2
:10056000F12C112319F0C7010E94670280915A03F0
:10057000877F09F054C080915D038F3FA1F09D2FCC
:100580009C2381E009F480E08C1569F0E0915F0321
:10059000F0916003809167039923D9F19081892BB1
:1005A0008083CC24C394E0916103F0916203808145
:1005B00090916903892B8083112319F0C7010E9450
:1005C000670280915E038F3F51F0E0916303F091E9
:1005D0006403808190916803892309F00C2BE091DA
:1005E0006103F09162039081809169038095892372
:1005F000808380915E038F3F09F0D02E8091580355
:1006000090915903892B09F047C0CC0FC111A9CF94
:100610007CCF9081809589238083C12CC4CFE091C9
:100620006103F0916203808190916903892B80833B
:10063000112319F0C7010E94670280915D038F3F6B
:1006400061F0E0915F03F0916003809167039D2F5B
:100650009C23F1F09081892B8083E0916103F091DC
:1006600062039081809169038095892380838091C2
:100670005E038F3F09F4BDCFE0916303F091640303
:10068000808190916803892309F4B3CF0C2BB1CFFB
:10069000908180958923E0CFC695B8CFCF93DF9323
:1006A000D82FC62F0E9418028D2F80680E947202D8
:1006B0008C2F0E947202DF91CF910C942E02CF9367
:1006C0000E94180280E00E9472028FEF0E94720264
:1006D000C82F0E942E028C2FCF9108953FB7F89417
:1006E0008091AD029091AE02A091AF02B091B002A4
:1006F00026B5A89B05C02F3F19F00196A11DB11D7D
:100700003FBFBA2FA92F982F8827BC01CD01620FB8
:10071000711D811D911D42E0660F771F881F991F73
:100720004A95D1F70895AF92BF92CF92DF92EF92A0
:10073000FF920F931F93CF93DF936C017B018B018B
:10074000040F151FEB015E01AE18BF08C017D107DB
:1007500059F06991D601ED91FC910190F081E02D65
:10076000C6011995892B79F7C501DF91CF911F91AA
:100770000F91FF90EF90DF90CF90BF90AF900895D2
:10078000FC01538D448D252F30E0842F90E0821B97
:10079000930B541710F0CF96089501970895FC011C
:1007A000918D828D981761F0A28DAE0FBF2FB11D74
:1007B0005D968C91928D9F5F9F73928F90E00895CC
:1007C0008FEF9FEF0895FC01918D828D981731F086
:1007D000828DE80FF11D858D90E008958FEF9FEFDA
:1007E0000895FC01918D228D892F90E0805C9F4FB0
:1007F000821B91098F739927089583EB92E00E94E1
:10080000F10321E0892B09F420E0822F0895FC01F7
:10081000A48DA80FB92FB11DA35ABF4F2C91848D61
:1008200090E001968F739927848FA689B7892C93BE
:10083000A089B1898C91837080648C93938D848D11
:10084000981306C00288F389E02D80818F7D808314
:100850000895EF92FF920F931F93CF93DF93EC01D4
:1008600081E0888F9B8D8C8D98131AC0E889F98957
:10087000808185FF15C09FB7F894EE89FF8960835A
:10088000E889F98980818370806480839FBF81E0DB
:1008900090E0DF91CF911F910F91FF90EF9008951D
:1008A000F62E0B8D10E00F5F1F4F0F731127E02EF8
:1008B0008C8D8E110CC00FB607FCFACFE889F98930
:1008C000808185FFF5CFCE010E940704F1CFEB8D2B
:1008D000EC0FFD2FF11DE35AFF4FF0829FB7F89404
:1008E0000B8FEA89FB8980818062CFCFCF93DF9322
:1008F000EC01888D8823B9F0AA89BB89E889F98938
:100900008C9185FD03C0808186FD0DC00FB607FC6C
:10091000F7CF8C9185FFF2CF808185FFEDCFCE019F
:100920000E940704E9CFDF91CF91089580E090E025
:10093000892B49F080E090E0892B29F00E9400008B
:1009400081110E94000080E090E0892B49F080E056
:1009500090E0892B29F00E94000081110E94000084
:1009600080E090E0892B49F080E090E0892B29F02D
:100970000E94000081110E94000080E090E0892B1D
:1009800029F00E94FD0381110C940000089585ED6B
:100990008093BC008091BC0084FDFCCF1092A1022A
:1009A000089520917D02260F3327331F2132310510
:1009B000ECF42091A102FC0190E080E0243069F089
:1009C00082E00895A0917D022191AC01435A5D4FD0
:1009D000A40FB52FB11D2C930196861798F3809123
:1009E0007D02680F60937D0280E0089581E00895A4
:1009F00008958FEF9FEF08958FEF9FEF08958091F7
:100A00005C0290E09195819591090895CF93DF93D1
:100A1000CB01EA01642F0E94D104CE01DF91CF9176
:100A20000895CF93DF931F92CDB7DEB7698361E05E
:100A3000CE0101960E94D10481E090E00F90DF91F9
:100A4000CF91089590E080E00895FB01019000208F
:100A5000E9F73197AF01461B570BDC01ED91FC9193
:100A60000280F381E02D19941F93CF93DF93EC0163
:100A7000162F8091B1029091B202DC01ED91FC91B0
:100A80000190F081E02D6BE119958091B102909178
:100A9000B202DC01ED91FC910190F081E02D612F1B
:100AA0001995BE018091B1029091B202DF91CF9170
:100AB0001F910C9425051F920F920FB60F921124CF
:100AC0002F933F938F939F93AF93BF938091A902EE
:100AD0009091AA02A091AB02B091AC023091A80211
:100AE00023E0230F2D3768F126E8230F0296A11D7E
:100AF000B11D2093A8028093A9029093AA02A0930B
:100B0000AB02B093AC028091AD029091AE02A09185
:100B1000AF02B091B0020196A11DB11D8093AD024C
:100B20009093AE02A093AF02B093B002BF91AF9189
:100B30009F918F913F912F910F900FBE0F901F901B
:100B400018950196A11DB11DD4CF1F920F920FB61B
:100B50000F9211240BB60F922F933F934F935F93F5
:100B60006F937F938F939F93AF93BF93EF93FF9375
:100B700083EB92E00E940704FF91EF91BF91AF9148
:100B80009F918F917F916F915F914F913F912F91A5
:100B90000F900BBE0F900FBE0F901F9018951F92D5
:100BA0000F920FB60F9211240BB60F922F938F93C3
:100BB0009F93EF93FF93E091C302F091C402808171
:100BC000E091C902F091CA0282FD1DC0908180911E
:100BD000CC028F5F8F732091CD02821741F0E0919C
:100BE000CC02F0E0ED54FD4F958F8093CC02FF9145
:100BF000EF919F918F912F910F900BBE0F900FBE91
:100C00000F901F9018958081F2CF1F920F920FB610
:100C10000F9211240BB60F922F933F934F935F9334
:100C20006F937F938F939F93AF93BF93EF93FF93B4
:100C30008091B900887F803609F44DC008F040C02B
:100C4000883209F4A7C028F5803109F49BC0C8F4A4
:100C5000882309F4F1C0883009F494C0FF91EF9122
:100C6000BF91AF919F918F917F916F915F914F91C4
:100C70003F912F910F900BBE0F900FBE0F901F90C2
:100C80001895883109F486C0803241F78093A0021C
:100C900014C0803409F497C040F48033B9F388332A
:100CA000E9F68093A00285ECA8C0803509F481C0E4
:100CB000883509F490C0883489F60E94C704CECFE5
:100CC000883909F486C038F5883729F050F4883619
:100CD00011F0803719F683E08093A10210929F02F1
:100CE00055C0883809F475C0803919F0803809F08A
:100CF000B5CF80919F02803208F06BC0E0919F02D7
:100D000081E08E0F80939F028091BB00F0E0E1585C
:100D1000FD4F80833BC0803B39F0D0F4803A09F42A
:100D200071C0883A09F09ACF84E08093A1021092B2
:100D30007E0210927D02F0E0E0E0199580917D0244
:100D400081110FC081E080937D0210925D0209C085
:100D5000803C09F4A8CF883C09F4A5CF883B09F072
:100D60007DCFE0917E0281E08E0F80937E02F0E0E5
:100D7000E35AFD4F80818093BB0090917E02809169
:100D80007D0225C08091A6028093BB0085EC8093F4
:100D9000BC0064CF9091A5028091A402981728F519
:100DA000E091A50281E08E0F8093A502F0E08081A2
:100DB000EBCFE091A50281E08E0F8093A502809198
:100DC000BB00F0E080839091A5028091A402981767
:100DD000E8F285E8DCCFE091A50281E08E0F8093F8
:100DE000A5028091BB00F0E080838091A302811175
:100DF00064CF81E08093A20284EA8093BC001092C9
:100E0000A1022CCF85EC8093BC001092A1028091AE
:100E10009F02803230F4E0919F02F0E0E158FD4FF4
:100E2000108260919F0270E08FE792E0F0E0E0E0D6
:100E3000199510929F0212CF1092A0023ECFE3EBC1
:100E4000F2E01382128288EE93E0A0E0B0E08483A7
:100E50009583A683B7838AE092E09183808385E3BC
:100E600091E09587848784E391E09787868780E384
:100E700091E0918B808B81E391E0938B828B82E375
:100E800091E0958B848B86E391E0978B868B118E16
:100E9000128E138E148EA0E5B3E011961C921E9252
:100EA00013961C921E92129780E21B968C931B97AE
:100EB00087E11C968C931C978FE11E968C931E974E
:100EC0008EE11D968C931D97E6E6F2E0E491F0E04A
:100ED000EE0FFF1FE45DFD4F8591949156969C9314
:100EE0008E935597E6EFF1E0E4915A96EC935A977A
:100EF000E4E6F2E0E491F0E0EE0FFF1FE45DFD4F69
:100F00008591949150969C938E931F97E4EFF1E016
:100F1000E4915796EC935797E5E6F2E0E491F0E020
:100F2000EE0FFF1FE454FE4F8591949154969C93CD
:100F30008E935397E5EFF1E0E4915896EC93589730
:100F4000EDE5F2E0E491F0E0EE0FFF1FE45DFD4F10
:100F50008591949152969C938E935197EDEEF1E08A
:100F6000E4915996EC93599740E452E46FE070E0B5
:100F700014964D935D936D937C93179781E090E069
:100F800019969C938E93189784E01A968C931A97CF
:100F90005B961C920895CF93DF93CDB7DEB7E297AF
:100FA0000FB6F894DEBF0FBECDBF789484B58360D2
:100FB00084BD85B5836085BD80916E00816080931E
:100FC0006E0082E080938100809181008160809337
:100FD0008100809180008160809380008091B100C9
:100FE00084608093B1008091B00081608093B000F4
:100FF0008091910083608093910080919000816046
:10100000809390008091A10083608093A1008091E3
:10101000A00081608093A000809121018360809373
:1010200021018091200181608093200187E88093D5
:101030007A001092C10080915B038F3F41F061E024
:101040000E94360261E080915B030E94EA01809178
:10105000500390915103892B09F48EC11FB7F89466
:101060008091A702811127C0EBE7F2E08491EBE0C9
:10107000F2E09491E82FF0E0EE0FFF1FE45BFE4FEB
:10108000A591B491EC91E92321F461E085E30E94FC
:10109000EA0161E085E30E9436028CB580618CBD77
:1010A0008CB580648CBD61E084E30E94360261E00F
:1010B00083E30E9436028091A7028F5F8093A7028C
:1010C0001FBF81E080936B030E945F03682F6F7ED8
:1010D00080E00E944E030E945F03682F6F7780E0DC
:1010E0000E944E030E945F03682F6F7B80E00E9486
:1010F0004E0360E086E00E944E0360E085E00E94BF
:101100004E036FEF84E00E944E036FEF83E00E9476
:101110004E030E945F03837D682F626080E00E941F
:101120004E03E091C302F091C40282E08083E0911B
:10113000BF02F091C0021082E091C102F091C202A0
:101140008FEC80831092CB02E091C702F091C8022D
:1011500086E08083E091C502F091C60280818869B3
:101160008083E091C502F091C60280818F7D8083EB
:1011700068E172E083EB92E00E94250583EB92E048
:101180009093B2028093B102E091B302F091B40265
:101190000190F081E02D64E119958091B102909168
:1011A000B202DC01ED91FC910190F081E02D61E152
:1011B00019958091B1029091B202DC01ED91FC9100
:1011C0000190F081E02D62E019958091B10290913B
:1011D000B202DC01ED91FC910190F081E02D6CE018
:1011E000199560E089E10E94360260E08BE10E947F
:1011F000360261E08AE20E94360220E4722E3DE16E
:10120000232E32E0332E8E010F5F1F4F47E0642EF6
:1012100059E3452E52E0552E80917B00877F8093C5
:101220007B0070927C0080917A00806480937A00C9
:1012300080917A0086FDFCCF6091780070917900F2
:10124000072E000C880B990B0E94FE0C20E030E06A
:1012500040EA5BE30E948A0DF62EE72ED82EC92EB7
:1012600020E030E040EF50E4D701F6016B2F7A2FF9
:101270008F2F9E2F0E948A0D20E030E040E750E43F
:101280000E948F0C9F938F937F936F93CF92DF92E7
:10129000EF92FF923F922F921F930F930E94460F5F
:1012A00060E0C8010E9434057F926F92BEEABF934E
:1012B000E4E1EF93F2E4FF9388EC8F931F921F9287
:1012C0005F924F921F930F930E94460F64E1C801F3
:1012D0000E943405E0E9F1E08491E0E0F2E0E4907E
:1012E000E0E7F2E0F4900FB6F894DEBF0FBECDBF9A
:1012F00070E060E0FF2099F081110E948301EF2DE2
:10130000F0E0EE0FFF1FE454FE4FA591B4918C91D5
:10131000E82291E080E009F490E0692F782F31E035
:1013200063278AE20E94EA010E946E034B015C017E
:1013300084EFC82EDD24D394E12CF12C0E946E039F
:10134000681979098A099B09683E734081059105EE
:10135000A8F381E0C81AD108E108F108A8EE8A0EC6
:10136000A3E09A1EA11CB11CC114D104E104F10434
:1013700029F70E94960450CF61E080915C030E949F
:10138000360280915A038B7F60E009F061E0809122
:101390005C030E94EA0180915D038F3F41F061E0B0
:1013A0000E94360261E080915D030E94EA01809113
:1013B0005E038F3F09F485CE60E00E94360281CE45
:1013C0008091520390915303009711F00C94BD0E3D
:1013D00008952F923F924F925F926F927F928F92D9
:1013E0009F92AF92BF92CF92DF92EF92FF920F93B4
:1013F0001F93CF93DF9300D000D000D01F921F9295
:10140000CDB7DEB77C013B018A01FC011782168251
:10141000838181FFDDC1CE0101965C01F7019381DB
:10142000F30193FD859193FF81913F01882309F496
:1014300053C1853239F493FD859193FF81913F012A
:10144000853229F4B70190E00E94010CE7CF912C7E
:10145000212C312CFFE1F31538F08B3211F190F48F
:10146000803209F1833229F137FC3CC020ED280F8E
:101470002A3050F536FE20C08AE0989E200D1124B7
:10148000922E06C08D3291F0803371F7689430F857
:10149000F30193FD859193FF81913F018111DACF93
:1014A00021C0689431F8689432F8F2CF689433F828
:1014B000EFCF689434F8ECCFEAE02E9E200D112493
:1014C000222E689435F8E4CF8E3229F436FC04C11C
:1014D000689436F8DDCF8C3619F4689437F8D8CF95
:1014E0008836B1F2982F9F7D95549330E0F0833683
:1014F000A1F18337C1F1833509F063C02801F2E01F
:101500004F0E511CF801C080D180692D70E036FC6F
:1015100002C06FEF7FEFC6010E94EB0B4C01689495
:1015200037F882010AC00C5F1F4FFFE3F98388245C
:101530008394912C6501E89437F833FE2DC0522C2A
:101540008114910471F5552009F468CFB70180E248
:1015500090E00E94010C5A94F6CFF80180818983B3
:101560000E5F1F4FE4CF2801F2E04F0E511CF8012F
:10157000C080D180692D70E036FC02C06FEF7FEF34
:10158000C6010E94F60B4C018201D5CFB70180E263
:1015900090E00E94010C2A942814190409F0B0F775
:1015A000CECFF60137FC859137FE81916F01B701EF
:1015B00090E00E94010C51105A94F1E08F1A9108AA
:1015C000BFCF843619F0893609F077C0F80137FEAD
:1015D0006BC060817181828193810C5F1F4FF32DFD
:1015E000FF763F2E97FF09C0909580957095619585
:1015F0007F4F8F4F9F4F689437F82AE030E0A50166
:101600000E94310CC82ECA188C2C432C36FE0CC0FC
:10161000E89440F8C91440F434FE05C032FC03C01D
:10162000F32DFE7E4F2E892C44FEAAC0FE01EC0D48
:10163000F11D8081803309F09CC0242D297E422E2B
:10164000842D8870582E43FCAAC040FEA4C09C2C58
:10165000821418F42C0C922C981844FEA6C0B701E2
:1016600080E390E00E94010C42FE09C088E790E010
:1016700041FE02C088E590E0B7010E94010CC91448
:1016800008F49FC0CA94D12C9FEFC91AD90ACA0C7A
:10169000DB1CF60182916F01B70190E00E94010C02
:1016A000AC14BD04B1F74FCF60817181072E000CDF
:1016B000880B990B0E5F1F4F92CFD32CE894D4F870
:1016C0002AE030E08537E1F1232D297FD22E8F36B5
:1016D000A9F1F0F4883551F1F701868197812B96B5
:1016E0000FB6F894DEBF0FBECDBFDF91CF911F9133
:1016F0000F91FF90EF90DF90CF90BF90AF909F90B1
:101700008F907F906F905F904F903F902F900895B3
:10171000803749F0883701F7D4FE02C06894D2F8C8
:1017200020E130E00DC06894D4F8F6CF34FE03C059
:10173000822F8660D82E20E132E002C028E030E01F
:10174000F801D7FE0FC060817181828193810C5FA7
:101750001F4FA5010E94310CC82ECA183D2CE894D9
:1017600037F852CF6081718190E080E00E5F1F4FAB
:10177000F0CF42FC02C0839463CF8394839460CF04
:10178000842D867809F45CCFF6CFB70180E290E033
:101790000E94010C83948214C0F3512C5ECF522C12
:1017A0005818821408F459CFF8CF842D867809F49C
:1017B00066CF8BE241FE80E247FC8DE2B70190E00C
:1017C0005CCFB70180E390E00E94010C9A9457CF60
:1017D0008FEF9FEF84CFFC010590615070400110A6
:1017E000D8F7809590958E0F9F1F0895FC0161504A
:1017F000704001900110D8F7809590958E0F9F1F33
:1018000008950F931F93CF93DF93182F092FEB01A8
:101810008B8181FD09C01FEF0FEF812F902FDF918A
:10182000CF911F910F91089582FF14C02E813F81A7
:101830008C819D81281739073CF4E881F981CF011B
:1018400001969983888310838E819F8101969F835F
:101850008E83E3CFE885F985812F1995892BA1F334
:10186000DACFFA01AA27283051F1203181F1E8942A
:101870006F936E7F6E5F7F4F8F4F9F4FAF4FB1E083
:101880003ED0B4E03CD0670F781F891F9A1FA11D7E
:10189000680F791F8A1F911DA11D6A0F711D811D7F
:1018A000911DA11D20D009F468943F912AE0269F44
:1018B00011243019305D3193DEF6CF010895462FA3
:1018C0004770405D4193B3E00FD0C9F7F6CF462F84
:1018D0004F70405D4A3318F0495D31FD40524193ED
:1018E00002D0A9F7EACFB4E0A695979587957795AA
:1018F0006795BA95C9F700976105710508959B0131
:10190000AC010A2E06945795479537952795BA95B9
:10191000C9F7620F731F841F951FA01D08955058AB
:10192000BB27AA270E94A70C0C94500D0E94420DC1
:1019300038F00E94490D20F039F49F3F19F426F445
:101940000C943F0D0EF4E095E7FB0C94390DE92F54
:101950000E94610D58F3BA17620773078407950751
:1019600020F079F4A6F50C94830D0EF4E0950B2E7F
:10197000BA2FA02D0B01B90190010C01CA01A001E1
:101980001124FF27591B99F0593F50F4503E68F13C
:101990001A16F040A22F232F342F4427585FF3CF7D
:1019A000469537952795A795F0405395C9F77EF44E
:1019B0001F16BA0B620B730B840BBAF09150A1F097
:1019C000FF0FBB1F661F771F881FC2F70EC0BA0F1D
:1019D000621F731F841F48F4879577956795B795A5
:1019E000F7959E3F08F0B0CF9395880F08F09927A0
:1019F000EE0F979587950895E89409C097FB3EF4FC
:101A000090958095709561957F4F8F4F9F4F99234B
:101A1000A9F0F92F96E9BB279395F69587957795C9
:101A20006795B795F111F8CFFAF4BB0F11F460FF89
:101A30001BC06F5F7F4F8F4F9F4F16C0882311F0E1
:101A400096E911C0772321F09EE8872F762F05C0F5
:101A5000662371F096E8862F70E060E02AF09A9590
:101A6000660F771F881FDAF7880F9695879597F985
:101A7000089597F99F6780E870E060E008959FEF10
:101A800080EC089500240A94161617061806090615
:101A9000089500240A9412161306140605060895E4
:101AA000092E0394000C11F4882352F0BB0F40F46C
:101AB000BF2B11F460FF04C06F5F7F4F8F4F9F4FAC
:101AC000089557FD9058440F551F59F05F3F71F02E
:101AD0004795880F97FB991F61F09F3F79F0879595
:101AE0000895121613061406551FF2CF4695F1DF1E
:101AF00008C0161617061806991FF1CF86957105AE
:101B0000610508940895E894BB2766277727CB01E1
:101B100097F908950E949D0D0C94500D0E94420D5E
:101B200038F00E94490D20F0952311F00C94390DE6
:101B30000C943F0D11240C94840D0E94610D70F3E0
:101B4000959FC1F3950F50E0551F629FF001729F62
:101B5000BB27F00DB11D639FAA27F00DB11DAA1F71
:101B6000649F6627B00DA11D661F829F2227B00DBE
:101B7000A11D621F739FB00DA11D621F839FA00D49
:101B8000611D221F749F3327A00D611D231F849F99
:101B9000600D211D822F762F6A2F11249F575040F0
:101BA0009AF0F1F088234AF0EE0FFF1FBB1F661F6B
:101BB000771F881F91505040A9F79E3F510580F034
:101BC0000C94390D0C94840D5F3FE4F3983ED4F3EC
:101BD000869577956795B795F795E7959F5FC1F7D8
:101BE000FE2B880F911D9695879597F90895A1E290
:101BF0001A2EAA1BBB1BFD010DC0AA1FBB1FEE1F87
:101C0000FF1FA217B307E407F50720F0A21BB30BD1
:101C1000E40BF50B661F771F881F991F1A9469F74D
:101C200060957095809590959B01AC01BD01CF01A9
:101C30000895EE0FFF1F881F8BBF0790F691E02DD0
:101C400019940F931F93CF93DF938230910510F473
:101C500082E090E0E0916E03F0916F0330E020E0CD
:101C6000B0E0A0E0309799F42115310509F44AC09D
:101C7000281B390B24303105D8F58A819B816115E9
:101C8000710589F1FB0193838283FE0111C04081BC
:101C900051810281138148175907E0F0481759070D
:101CA00099F4109761F012960C93129713961C9367
:101CB0003296CF01DF91CF911F910F91089500933C
:101CC0006E0310936F03F4CF2115310551F04217C5
:101CD000530738F0A901DB019A01BD01DF01F801CA
:101CE000C1CFEF01F9CF90936F0380936E03CDCFF7
:101CF000FE01E20FF31F8193919322503109398342
:101D00002883D7CF20916C0330916D03232B41F4AE
:101D1000209102023091030230936D0320936C03F3
:101D200020910002309101022115310541F42DB7B7
:101D30003EB74091040250910502241B350BE091FF
:101D40006C03F0916D03E217F307A0F42E1B3F0B19
:101D50002817390778F0AC014E5F5F4F241735071D
:101D600048F04E0F5F1F50936D0340936C038193B7
:101D700091939FCFF0E0E0E09CCFCF93DF9300976B
:101D8000E9F0FC01329713821282A0916E03B091A8
:101D90006F03ED0130E020E01097A1F42081318144
:101DA000820F931F20916C0330916D032817390720
:101DB00009F061C0F0936D03E0936C03DF91CF9164
:101DC0000895EA01CE17DF07E8F54A815B819E019D
:101DD00041155105B1F7E901FB83EA834991599116
:101DE000C40FD51FEC17FD0761F480819181029625
:101DF000840F951FE90199838883828193819B8356
:101E00008A83F0E0E0E012968D919C911397009701
:101E1000B9F52D913C911197CD010296820F931F38
:101E200020916C0330916D032817390739F63097EC
:101E300051F510926F0310926E03B0936D03A0934F
:101E40006C03BCCFD383C28340815181840F951F23
:101E5000C817D90761F44E5F5F4F88819981480F99
:101E6000591F518340838A819B81938382832115EB
:101E7000310509F0B0CFF0936F03E0936E039ECF6E
:101E8000FD01DC01C0CF13821282D7CF0F931F93C5
:101E9000CF93DF93CDB7DEB72E970FB6F894DEBFA2
:101EA0000FBECDBF0E891F8986E08C831A830983FC
:101EB0008FEF9FE79E838D83AE01465E5F4F688DF7
:101EC000798DCE0101960E94E9092F813885020F94
:101ED000131FF80110822E960FB6F894DEBF0FBEC6
:101EE000CDBFDF91CF911F910F91089511E0CFE405
:101EF000D1E000E006C0802FFE010E94190E21965D
:101F0000011DC035D10780E00807A9F7F894FFCF7D
:101F10000000700380000000000029049303C00348
:101F20007604F103CF03E3035465737400566F6CBA
:101F3000743A2025312E33662C2050726573733A23
:101F40002025312E32662020005265736973743A61
:101F50002025312E32662C2054656D703A202531B3
:061F60002E326620200075
:020000040003F7
:10FE0000112424B614BE80E089D021FE49C18EE0C1
:10FE100085D0E0ECF0E0AFE7BFEF6099FECF9096C1
:10FE2000609BFDCFB4831197F1F7B2E0B083B8E1E6
:10FE3000B18313E05FD0C82F823599F475D0E0E02C
:10FE4000FEEF1BBF309719F48BB781508BBFFA952B
:10FE5000A89583E091D03097A9F78BB78111F2CFA5
:10FE60003FC08D7FF1F453D0D82FA0E0B2E042D054
:10FE70008D93DA13FCCF58D0C1110FC0A0E0B2E0CF
:10FE8000F999FECF1FBAF2BDE1BD8D9180BDFA9AFE
:10FE9000F99A3196DA13F4CF23C0A0E0B2E04FD044
:10FEA0001FC0C33041F433D0C82F3ED087911BD040
:10FEB000C150E1F715C0C13071F429D0C82F34D03A
:10FEC000F999FECFF2BDE1BDF89A80B50CD031961C
:10FED000C150B1F705C0C13511F488E01FD024D05E
:10FEE0008FE801D0A7CF9091C00095FFFCCF809301
:10FEF000C60008952F9A279A8091C00087FFFCCFF3
:10FF000084FD15C0A8958091C6002F980895F2DF52
:10FF1000E82FF0DFF82FEEDF8BBFECCF98E1909366
:10FF20006000809360000895E5DF803219F088E07A
:10FF3000F5DFFFCF80EAD7CF6BBFFA01DC016A2F74
:10FF40009F01FE3F9BB783E09807D8F483E014D06D
:10FF5000903039F4309629F48FEF8D938EEC8C939A
:10FF6000119781E00D901D9007D03296A613FACF1D
:10FF7000F90185E001D081E187BFE89507B600FC73
:06FF8000FDCF11240895DD
:06FFFA0002289DCFE73F45
:00000001FF
