:100000000C9458010C9489010C9489010C94890179
:100010000C9489010C9489010C9489010C94890138
:100020000C9489010C9489010C9489010C94890128
:100030000C9489010C9489010C9489010C94890118
:100040000C9489010C9489010C9489010C94890108
:100050000C9489010C9489010C9489010C94E51984
:100060000C9489010C94B91A0C948F1A0C94890180
:100070000C9489010C9489010C9489010C948901D8
:100080000C9489010C9489010C9489010C948901C8
:100090000C9489010C9489010C9489010C94EF1A39
:1000A0000C9489010C9489010C9489010C948901A8
:1000B0000C9489010C9489010C9489010C94890198
:1000C0000C9489010C9489010C9489010C94890188
:1000D0000C9489010C9489010C94591A0C942F1AD0
:1000E0000C9489010C94FD050C9410090C94CF0517
:1000F0000C9401090C94BB050C94D2120C94EB05E2
:100100000C94D9050C9474090C9432090C940106D2
:100110000C944F280C94E7050C945B060C9424096E
:100120000C94F5050C94C1090C94C9050C94C105F7
:100130000C94DD050C94EF050C9400060C94D40887
:100140000C94091C0C94D3050C946C0A0C94F905BE
:100150000C94C5050C94E1050C94C9240000210001
:10016000240027002A002D00300033000101000088
:10017000040107010A0100000B0C030A0D0E0F0910
:10018000080405020000000000000000000000005C
:10019000000000000000000000000000000000005F
:1001A0000000131211000000000000000000000019
:1001B000000000000000000000000000000000003F
:1001C000000000000000000000000000000020000F
:1001D0002300260029002C002F003200000100001F
:1001E0000301060109010102102020080810204027
:1001F00010204080020102010804020101020408EB
:100200001020408080402010080402018004020178
:1002100080402010080402010804020101020408C1
:100220001020408001020408102040800440800417
:100230008008101020400408102040800000220098
:10024000250028002B002E003100340002010000A0
:10025000050108010B010505050507050808080843
:10026000020202020A0A080804040404010101014E
:100270000101010103030303030303030407070749
:100280000C0C0C0C0C0C0C0C0202020206060606EE
:10029000060606060B0B0B0B0B0B0B0B05050508D7
:1002A0000807070404040A0A0A0A0A0A091CC924DE
:1002B00011241FBECFEFD1E2DEBFCDBF00E00CBFE7
:1002C00013E0A0E0B2E0E2E4F5E500E00BBF02C01D
:1002D00007900D92AE31B107D9F725E0AEE1B3E05A
:1002E00001C01D92A23AB207E1F711E0C7E5D1E0E3
:1002F00000E006C021970109802FFE010E943928E5
:10030000C635D10780E00807A9F70E940C1E0C949F
:100310008F2A0C9400008091A9039091AA03DC011C
:10032000ED91FC910190F081E02D64E119958091AF
:10033000A9039091AA03DC01ED91FC910190F08159
:10034000E02D61E119958091A9039091AA03DC0148
:10035000ED91FC910190F081E02D62E01995809182
:10036000A9039091AA03DC01ED91FC910190F08129
:10037000E02D6CE019942F923F924F925F926F9212
:100380007F928F929F92AF92BF92CF92DF92EF9225
:10039000FF920F931F93CF93DF9300D01F92CDB79F
:1003A000DEB71C014B015A01390127019601227069
:1003B00033273A83298333E0C322DD245C834B83D4
:1003C000CD2851F46801C41AD50A8B819C818C0D0B
:1003D0009D1D84159505B0F07301E00EF11E4B8153
:1003E0005C81E614F704F1F06A01FFEFCF1ADF0A2F
:1003F0002FEF3FEFB401F70182917F01F1011995D1
:10040000A601EFCFEB80FC808FEFE81AF80A2FEF00
:100410003FEF4B815C81B40180E2F1011995FC82D0
:10042000EB82D3CF8B819C81800F911F29813A81F0
:10043000232BA1F09C012A193B092415350570F4E2
:10044000FC013196FA83E9832FEF3FEFAC01B40151
:1004500080E2F101199589819A81ECCF0F900F907C
:100460000F900F90DF91CF911F910F91FF90EF9020
:10047000DF90CF90BF90AF909F908F907F906F90C4
:100480005F904F903F902F9008952F923F924F9200
:100490005F926F927F928F929F92AF92BF92CF9214
:1004A000DF92EF92FF920F931F93CF93DF93CDB71D
:1004B000DEB7AF970FB6F894DEBF0FBECDBF9AA7D9
:1004C00089A77CA76BA75EA74DA7CAA2DBA2ECA257
:1004D0005F2C402E1DA3322E232EA8A689A22B9678
:1004E0008EAC9FAC2B9796014E2D5F2D602F712FF8
:1004F000832D922DA0E00E944A2909F04CC092FC65
:1005000042C080E38983E89484F866246394712C64
:1005100081FC92C0C4018170992729962EAD3FAD10
:100520002997232BA9F0009709F486C038A531112B
:1005300005C094012C703327232B51F029964EAD22
:100540005FAD29974150510929965FAF4EAF29976A
:10055000E1E0F0E0EC0FFD1FE60DF71D830120E365
:10056000009709F46AC029964EAD5FAD299704172C
:10057000150708F062C00032110509F45EC00F5F74
:100580001F4F2193EDCF29A1203111F4E89484F875
:10059000712C612CBDCF81E485FE81E6AE014F5FF9
:1005A0005F4F5FA34EA3712C612C8A508FA7A9A027
:1005B000B12CC12CD12CE12CF12C00E010E02AA1AF
:1005C0003BA14CA1552D642D7DA1832D922D0E9420
:1005D00072282A3074F5205D8FEF681A780AEEA130
:1005E000FFA12193FFA3EEA3A9A0B12CC12CD12C74
:1005F000E12CF12C00E010E02AA13BA14CA1552DEB
:10060000642D7DA1832D922D0E9474282AA33BA3E3
:100610004CA3552E462E7DA3382E292EA0E00E94F5
:100620004A2909F475CFF0E26F16710409F0BFCFC3
:100630006FCF5FA5250FD0CF8301E1E0F0E0EC0F95
:10064000FD1FE00FF11F80E327962EAD3FAD2797EA
:100650000217130738F40032110520F40F5F1F4F03
:100660008193F2CF39A1383029F46016710610F465
:10067000E89484F8C40180719071892B09F447C013
:1006800092FC25C00115110511F127964EAD5FAD05
:1006900027974017510739F029968EAD9FAD2997BE
:1006A00008171907A1F46016710608F099C0C8016F
:1006B000019759F0E9A1E03109F06EC0025011092B
:1006C0006816790640F08C0106C010E000E0F9A140
:1006D000F03109F062C085FC54C00032110540F5CC
:1006E000E1E0F0E0EC0FFD1FE00FF11F88E78083F1
:1006F0000F5F1F4F00321105D8F4E1E0F0E0EC0F7E
:10070000FD1FE00FF11F80E380830F5F1F4F00325A
:10071000110570F438A5332309F44EC0E1E0F0E090
:10072000EC0FFD1FE00FF11F8DE280830F5F1F4F65
:1007300064012996EEACFFAC29979E012F5F3F4FD5
:100740004DA55EA56BA57CA589A59AA50E94BB01B8
:10075000AF960FB6F894DEBF0FBECDBFDF91CF913D
:100760001F910F91FF90EF90DF90CF90BF90AF90CF
:100770009F908F907F906F905F904F903F902F90C1
:10078000089500321105A0F6E1E0F0E0EC0FFD1F46
:10079000E00FF11F88E5ABCF8C0129A1223009F0D1
:1007A000A9CF0032110520F6E1E0F0E0EC0FFD1FCB
:1007B000E00FF11F82E69BCF82FE08C0E1E0F0E08F
:1007C000EC0FFD1FE00FF11F8BE2AFCF83FEB0CF28
:1007D000E1E0F0E0EC0FFD1FE00FF11F80E2A5CF9C
:1007E00049A14031D1F677CF2F923F924F925F923D
:1007F0006F927F928F929F92AF92BF92CF92DF9231
:10080000EF92FF920F931F93CF93DF93CDB7DEB795
:100810006E970FB6F894DEBF0FBECDBF09871A875B
:100820002B873C874D875E876F87788B24964EACED
:100830005FAC24978C8A9D8AAE8ABF8AC88ED98E77
:10084000EA8EFB8E8C8F2AAD3BAD232B09F49EC024
:100850000A8B1B8B6B847C844A011B01EEADFFADC0
:10086000F3FF3EC0E4FD3CC0202F312FA301B401B3
:10087000C101A0E00E944A2909F00CF49AC02AE0C4
:10088000A22EB12CC12CD12CE12CF12C00E010E0D7
:100890002A893B89A301B401C1010E944128A0E03B
:1008A0000E944A2999F42AAD3BAD215031093BAF52
:1008B0002AAF2A893B89A301B401C1010E944328C0
:1008C0002A8B3B8B3A014B011C01D9CF2A893B89EA
:1008D000A301B401C101A0E00E944A2909F469C042
:1008E00022968EAD9FAD2297840D951D9E8F8D8F84
:1008F00090E24916510408F096C0EAADFBAD31977D
:10090000FBAFEAAFFFEF4F1A5F0A9AE0A92EB12CB6
:10091000C12CD12CE12CF12C00E010E02A893B897C
:10092000A301B401C1010E944128205DED8DFE8D1F
:100930002193FE8FED8F2A893B89A301B401C10168
:100940000E9443282A8B3B8B3A014B011C01A0E0FB
:100950000E944A2969F62296EEADFFAD2297E40D7A
:10096000F51D80E320E24216510409F45CC03FEF1C
:10097000431A530A2AAD3BAD2115310509F4DAC0FB
:100980008193215031093BAF2AAFECCF3EAD34FF0C
:1009900010C080E24816510408F045C02296EEAD22
:1009A000FFAD2297E40DF51D8EE28083F2013196B2
:1009B0002F0122966EAC7FAC2297640C751CF0E27E
:1009C0004F16510480F52FEF421A520A8AE0A82EE2
:1009D000B12CC12CD12CE12CF12C00E010E02C89A1
:1009E0003D894E895F89688D798D8A8D9B8D0E94A6
:1009F0004128205DF30121933F012C893D894E89D7
:100A00005F89688D798D8A8D9B8D0E9443282C8B00
:100A10003D8B4E8B5F8B688F798F8A8F9B8FA0E089
:100A20000E944A2961F6FEADF1FD29C0F0FF27C002
:100A30002CAD3DAD232B19F13C8D311106C08EAD8F
:100A40009FAD8C709927892B29F08CAD9DAD0197B6
:100A50009DAF8CAF2296EEADFFAD2297E40DF51D54
:100A600080E32CAD3DAD4216530648F430E2431608
:100A70005104C0F49FEF491A590A8193F2CFE0E282
:100A80004E16510478F4FC8DFF23B1F12296EEADA1
:100A9000FFAD2297E40DF51D8DE2808392012F5F5B
:100AA0003F4F2901CEACDFACECACFDAC820122960D
:100AB0002EAD3FAD229748AD59AD6EA97FA98CA947
:100AC0009DA90E94BB016E960FB6F894DEBF0FBEC3
:100AD000CDBFDF91CF911F910F91FF90EF90DF90ED
:100AE000CF90BF90AF909F908F907F906F905F90CE
:100AF0004F903F902F9008953EAD32FF0CC022964C
:100B0000EEADFFAD2297E40DF51D8BE28083C201AF
:100B100001962C01C7CF9EAD93FFC4CF2296EEADB8
:100B2000FFAD2297E40DF51D80E28083F20131963E
:100B30002F01B8CF8EE280833CCF8250823108F003
:100B40005FC0E82FF0E08827E755FA4F8F4F0C94ED
:100B50003928FD050106BB05C105C5050006C90507
:100B6000CF05D305D905DD05E105E705EB05000651
:100B7000EF05F505F905809180008F77809380005F
:100B80000895809180008F7DF9CF80918000877FCC
:100B9000F5CF8091B0008F778093B0000895809159
:100BA000B0008F7DF9CF809190008F778093900077
:100BB0000895809190008F7DF9CF80919000877F7C
:100BC000F5CF8091A0008F778093A0000895809149
:100BD000A0008F7DF9CF8091A000877FF5CF809115
:100BE00020018F77809320010895809120018F7DCF
:100BF000F9CF80912001877FF5CF84B58F7784BDB1
:100C0000089584B58F7DFBCFCF93DF93282F30E0FD
:100C1000F901EA58FE4F8491F901EA51FE4FD4914F
:100C2000F901EA5AFD4FC491CC23A1F081110E9431
:100C30009D05EC2FF0E0EE0FFF1FE453FE4FA59152
:100C4000B491EC91ED2381E090E009F480E0DF9134
:100C5000CF91089580E090E0FACF1F93CF93DF9378
:100C6000282F30E0F901EA58FE4F8491F901EA514A
:100C7000FE4FD491F901EA5AFD4FC491CC23A9F05B
:100C8000162F81110E949D05EC2FF0E0EE0FFF1F43
:100C9000E45CFD4FA591B4918FB7F894EC911111DC
:100CA00008C0D095DE23DC938FBFDF91CF911F91D9
:100CB0000895DE2BF8CF8AE20E94040661E0892BBA
:100CC00009F060E08AE20E942D0680919F039FEF69
:100CD000980F933050F420919D0330919E032F5F25
:100CE0003F4F30939E0320939D03823089F08330E1
:100CF000B9F061E08130D9F460E087E20E942D060E
:100D00008DE10E94040661E0892B39F060E005C0A6
:100D100060E087E20E942D0661E08DE10C942D06D3
:100D200087E20E94040661E0892B09F060E087E217
:100D30000E942D06EBCF8091820590918305892B2F
:100D400041F0E0918405F0918505908181819CBD01
:100D50008DBD80918D058F3F19F060E00C942D06BC
:100D6000089580918D058F3F19F061E00C942D0658
:100D70000895CF93DF9390E0FC01EA51FE4F249158
:100D80008A5A9D4FFC0184918823D1F090E0880F0E
:100D9000991FFC01E45AFE4FA591B491FC01E45C5B
:100DA000FD4FC591D49161110EC09FB7F8948C91FD
:100DB000E22FE0958E238C932881E223E8839FBF66
:100DC000DF91CF9108958FB7F894EC91E22BEC93DB
:100DD0008FBFF6CF8230910538F0880F991F880FAA
:100DE000991F05970197F1F70895CF92DF92EF923F
:100DF000FF920F931F93CF93DF9320918205309141
:100E00008305232B79F08EBD0DB407FEFDCFDEB434
:100E10008D2DDF91CF911F910F91FF90EF90DF907B
:100E2000CF90089520918A0530918B05C1E0232B46
:100E300009F0C0E8CC24C394982F9C2309F0C12C5E
:100E4000D82F2091860530918705409188055091D3
:100E5000890560E271EA87E090E00E941728122F6E
:100E6000DD2E00E0E22EF12C112319F0C7010E94C3
:100E7000EA0680918C05877F09F054C080918F0528
:100E80008F3FA1F09D2F9C2381E009F480E08C1519
:100E900069F0E0919105F09192058091990599236F
:100EA000D9F19081892B8083CC24C394E091930560
:100EB000F0919405808190919B05892B808311236B
:100EC00019F0C7010E94EA06809190058F3F51F00A
:100ED000E0919505F0919605808190919A0589237E
:100EE00009F00C2BE0919305F0919405908180918D
:100EF0009B05809589238083809190058F3F09F021
:100F0000D02E80918A0590918B05892B09F047C0DE
:100F1000CC0FC111A9CF7CCF90818095892380838C
:100F2000C12CC4CFE0919305F091940580819091FC
:100F30009B05892B8083112319F0C7010E94EA06C3
:100F400080918F058F3F61F0E0919105F0919205BE
:100F5000809199059D2F9C23F1F09081892B8083AE
:100F6000E0919305F0919405908180919B05809587
:100F700089238083809190058F3F09F4BDCFE09154
:100F80009505F0919605808190919A05892309F441
:100F9000B3CF0C2BB1CF908180958923E0CFC6953C
:100FA000B8CFCF93DF93D82FC62F0E949B068D2FEB
:100FB00080680E94F5068C2F0E94F506DF91CF9184
:100FC0000C94B106EF92FF920F931F93CF93DF9390
:100FD000EC017B018A010E949B0688810E94F50634
:100FE000E7010E0D1F1DC017D10729F08FEF0E94DA
:100FF000F5068993F8CF0E94B10681E0DF91CF9189
:101000001F910F91FF90EF900895CF93DF931F9260
:101010001F92CDB7DEB71A82198241E050E0BE01BF
:101020006E5F7F4FCE0101960E94E2078A810F908A
:101030000F90DF91CF9108950E940508837D682F5E
:10104000626080E00C94D107CF93C82F0E940508FE
:10105000682FCC2329F0606880E0CF910C94D107F1
:101060006F77FACF3FB7F8948091A5039091A603CC
:10107000A091A703B091A80326B5A89B05C02F3F58
:1010800019F00196A11DB11D3FBFBA2FA92F982FAE
:101090008827BC01CD01620F711D811D911D42E0A9
:1010A000660F771F881F991F4A95D1F708958F9271
:1010B0009F92AF92BF92CF92DF92EF92FF924B013D
:1010C0005C010E9432086B017C010E9432086C199D
:1010D0007D098E099F09683E734081059105A8F33B
:1010E00021E0821A9108A108B10888EEC80E83E0B9
:1010F000D81EE11CF11C81149104A104B10429F74C
:10110000FF90EF90DF90CF90BF90AF909F908F9027
:1011100008950F931F93CF93DF9300D0CDB7DEB721
:101120000E941C0881E00E9424086AE070E080E0D0
:1011300090E00E9457080E940508682F606280E0D6
:101140000E94D10761E470E080E090E00E945708BF
:1011500019821A8281E08B8342E050E0BE016F5F0A
:101160007F4FCE0103960E94E20709811A81102762
:101170000127102780E00E942408C80196958795D2
:101180000F900F900F90DF91CF911F910F910895C5
:101190002FB7F8946091A1037091A2038091A303EB
:1011A0009091A4032FBF0895AF92BF92CF92DF9288
:1011B000EF92FF920F931F93CF93DF936C017B010C
:1011C0008B01040F151FEB015E01AE18BF08C0179D
:1011D000D10759F06991D601ED91FC910190F08110
:1011E000E02DC6011995892B79F7C501DF91CF91C3
:1011F0001F910F91FF90EF90DF90CF90BF90AF9035
:101200000895FC01538D448D252F30E0842F90E00C
:10121000821B930B541710F0CF96089501970895F1
:10122000FC01918D828D981761F0A28DAE0FBF2FBA
:10123000B11D5D968C91928D9F5F9F73928F90E010
:1012400008958FEF9FEF0895FC01918D828D98177F
:1012500031F0828DE80FF11D858D90E008958FEFBC
:101260009FEF0895FC01918D228D892F90E0805C85
:101270009F4F821B91098F73992708958BEA93E002
:101280000E94320921E0892B09F420E0822F089581
:1012900088E494E00E94320921E0892B09F420E0DF
:1012A000822F0895FC01A48DA80FB92FB11DA35A58
:1012B000BF4F2C91848D90E001968F739927848F76
:1012C000A689B7892C93A089B1898C918370806499
:1012D0008C93938D848D981306C00288F389E02D3A
:1012E00080818F7D80830895EF92FF920F931F93EB
:1012F000CF93DF93EC0181E0888F9B8D8C8D9813C9
:101300001AC0E889F989808185FF15C09FB7F894D4
:10131000EE89FF896083E889F98980818370806420
:1013200080839FBF81E090E0DF91CF911F910F916B
:10133000FF90EF900895F62E0B8D10E00F5F1F4F7A
:101340000F731127E02E8C8D8E110CC00FB607FC89
:10135000FACFE889F989808185FFF5CFCE010E9417
:101360005209F1CFEB8DEC0FFD2FF11DE35AFF4F2A
:10137000F0829FB7F8940B8FEA89FB8980818062A5
:10138000CFCFCF93DF93EC01888D8823B9F0AA8962
:10139000BB89E889F9898C9185FD03C0808186FD30
:1013A0000DC00FB607FCF7CF8C9185FFF2CF80817F
:1013B00085FFEDCFCE010E945209E9CFDF91CF9199
:1013C000089580E090E0892B29F00E94480981115E
:1013D0000E94000080E090E0892B49F080E090E0DE
:1013E000892B29F00E94000081110E94000080E0FA
:1013F00090E0892B49F080E090E0892B29F00E9451
:10140000000081110E94000080E090E0892B29F00B
:101410000E943E0981110C940000089585ED80938F
:10142000BC008091BC0084FDFCCF10926A0308953B
:1014300020914603260F3327331F21323105ECF468
:1014400020916A03FC0190E080E0243069F082E0A2
:101450000895A09146032191AC014A5D5C4FA40F11
:10146000B52FB11D2C930196861798F380914603F2
:10147000680F6093460380E0089581E00895089521
:101480008FEF9FEF08958FEF9FEF089580912503D1
:1014900090E09195819591090895CF93DF93CB01C9
:1014A000EA01642F0E94180ACE01DF91CF910895BE
:1014B000CF93DF931F92CDB7DEB7698361E0CE0192
:1014C00001960E94180A81E090E00F90DF91CF9181
:1014D000089590E080E008954217530720F4640FC8
:1014E000751FFB018083089508952F923F924F92BC
:1014F0005F926F927F928F929F92AF92BF92CF92A4
:10150000DF92EF92FF920F931F93CF93DF93CDB7AC
:10151000DEB760970FB6F894DEBF0FBECDBF988BD5
:101520008F876A017B013E872D87DB01CA018827EF
:10153000B7FD83959927AA27BB27282F2170EF8510
:10154000F889208B892B21F0F7FAF094F7F8F094C2
:10155000C701B6010E94BE2529833A834B835C8371
:101560006D837E838F839887AF85B8892C9311967E
:101570003C93119712964C93129713965C93139782
:1015800014966C93149715967C9315978F811696E5
:101590008C931697988517969C93ED85FE85EE0F94
:1015A000FF1FEE0FFF1FEA5FFD4F80819181A28137
:1015B000B38189879A87AB87BC878F8198850E9482
:1015C00030269B01AC01C701B6010E94DA242985AF
:1015D0003A854B855C850E943B272B013C010E948C
:1015E000BE25822E232E342E952E5B018C01AF85D5
:1015F000B88918962C93189719963C9319971A96B0
:101600004C931A971B965C931B971C966C931C9794
:101610001D96BC921D971E968C931E971F961C9329
:101620000E9430269B01AC01C301B2010E94DA2462
:101630002B013C0120E030E040E05FE30E943627D0
:1016400018160CF0D0C0282D322D432D592DB50180
:10165000C801A1E00E943E2939014A015B018C01C9
:101660000E9430269B01AC0169857A858B859C851B
:101670000E94472518160CF087C0EF85F889608610
:10168000718682869386A486B58606871787ED8540
:10169000FE85EF2B09F05DC0AF85B8891C911196CE
:1016A0006C90119712967C90129713968C901397CA
:1016B00014969C9014971596AC9015971696BC901E
:1016C000169717960C91212F362D472D582D692DE1
:1016D0007A2D8B2D902F0E9430269B01AC01C701E3
:1016E000B6010E94DA246B017C0120E030E040E08A
:1016F0005FE30E94472587FF0AC020E030E040E01A
:101700005FE3C701B6010E943627181614F5212F92
:10171000217030E040E050E060E070E080E090E078
:10172000A0E00E944A29A9F0212F362D472D582DDF
:10173000692D7A2D8B2D902FA1E00E943E29EF85F7
:10174000F88920833183428353836483758386833E
:1017500097838F85988960960FB6F894DEBF0FBE89
:10176000CDBFDF91CF911F910F91FF90EF90DF9050
:10177000CF90BF90AF909F908F907F906F905F9031
:101780004F903F902F900895AF85B88918961C927E
:10179000189719961C9219971A961C921A971B96CD
:1017A0001C921B971C961C921C971D961C921D97B1
:1017B0001E961C921E971F961C9229813A814B817E
:1017C0005C816D817E818F819885A1E00E943E2998
:1017D000EF85F88920833183428353836483758343
:1017E0008683978354CF20E030E040E05FE3C3017D
:1017F000B2010E94472581114ACF282D322D432D59
:10180000592DB501C801A0E00E944A2961F021705C
:1018100030E040E050E060E070E080E090E00E9466
:101820004A2909F434CF282D322D432D592DB501E5
:10183000C801A1E00E943E29AF85B88918962C9373
:10184000189719963C9319971A964C931A971B96CA
:101850005C931B971C966C931C971D967C931D970D
:101860001E968C931E971F969C9311CF2F923F929A
:101870004F925F926F927F928F929F92AF92BF92A0
:10188000CF92DF92EF92FF920F931F93CF93DF934C
:10189000CDB7DEB7E6970FB6F894DEBF0FBECDBF6B
:1018A0009CA78BA76DA77EA758AB4FA70A8B1B8B56
:1018B0002C8B3D8BFF8EEE8EDAAAC9AAB9A6A8A6FC
:1018C0008BAA9CAA2D962FAD2D972DAB2E963FADB2
:1018D0002E973EAB8A899B89AC89BD898827B7FD45
:1018E00083959927AA27BB278E8B9F8BA88FB98FAB
:1018F0000E891F890115110549F02A893B894C89F8
:101900005D8950582A8B3B8B4C8B5D8B20E030E0FF
:10191000A9016A897B898C899D890E944725312C80
:10192000212C882309F40FC18A899B89AC89BD8940
:10193000E7E1B695A79597958795EA95D1F7992709
:101940008F579109BC01990F880B990B0E9438267B
:101950002BE930E24AE95EE30E943B2724E431E5CB
:1019600044E35EE30E94DB246B017C016A897B898E
:101970008C899D898F77992780689F6320E030E06C
:1019800040EC5FE30E94DA242BE33DE344E95EE3AD
:101990000E943B279B01AC01C701B6010E94DB24DA
:1019A0000E94FA256A8F7B8F8C8F9D8F2A8C3B8CAF
:1019B000B101032C000C880B990B0E9438266B0197
:1019C0007C0128E73AE944E550E40E943B2720E007
:1019D00030E040E05FE30E94DB240E94FA254B01E7
:1019E0002EE83DE543E150E4C701B6010E943B27E4
:1019F0006B017C01092C000CAA08BB08C501B401CD
:101A00000E94382628E132E741E35FE30E943B274A
:101A10009B01AC01C701B6010E94DA242B013C01F5
:101A2000AC019B010E943B276B017C01A301920149
:101A3000C301B2010E94DB2468A379A38AA39BA3FC
:101A400020E030E040E651E4C701B6010E944C2599
:101A500020E030E040E251E40E94DB249B01AC0135
:101A6000C701B6010E944C2520E030E040EC50E474
:101A70000E94DB249B01AC01C701B6010E944C25EA
:101A80006B017C01A301920160E070E080E090E4D2
:101A90000E94DA249B01AC01C701B6010E94DB243D
:101AA0009B01AC0168A179A18AA19BA10E944C2550
:101AB00020E030E040E85FE30E94DB243FE7830E54
:101AC000911CA11CB11CA5019401F7E1220F331F49
:101AD000441F551FFA95D1F70E943B272B013C016B
:101AE000AC019B016A897B898C899D890E9447256D
:101AF00087FF0DC041E0241A310820E030E040E2C9
:101B000051E4C301B2010E944C252B013C01C101EB
:101B1000419651E05AA78332910508F01AA683979F
:101B200090F4C10137FE04C08827992782199309D0
:101B3000880F991F880F991FFC01EA5FFD4F4080B5
:101B400051806280738088A599A593FF8DC1AE8D69
:101B5000BF8D9D01AB2B11F421E030E08E8D9F8D68
:101B60000197BCEF2B16BFEF3B060CF467C02216A3
:101B700033060CF063C082199309AA24A3949F8FA3
:101B80008E8F97FF02C01F8E1E8EE8A5F9A5F46008
:101B9000F9A7E8A737FE1AA6A110C1C12114310484
:101BA00009F475C18E898170898BFAA5FF2309F428
:101BB00063C1A30192016A897B898C899D890E94F6
:101BC0003B271AA50E94BE252E8B3A8F48A35CA303
:101BD0006DA37EA3882E9FA30E9430262AA5A30171
:101BE000222371F192010E944C259B01AC016A896C
:101BF0007B898C899D890E94DA246B017C01EE8DA2
:101C0000FF8DEE0FFF1FEE0FFF1FEA5FFD4F80817C
:101C10009181A281B3818A8B9B8BAC8BBD8B11236D
:101C200099F0A3019201BC01CD010E943B279B01C9
:101C3000AC01C701B6010E943B273DC0A12C9FCF3C
:101C400092010E943B27D1CFD301C20157E1B69543
:101C5000A795979587955A95D1F799279C012F5766
:101C6000310937FF03C03195219531098A899B8954
:101C7000AC89BD8947E1B695A795979587954A9513
:101C8000D1F799278F57910997FF03C091958195B7
:101C90009109821793070CF07DC02A893B894C89F2
:101CA0005D89C301B2010E944C259B01AC01C701B3
:101CB000B6010E944C252B013C01AE8DBF8DAB2B94
:101CC00009F071C011E020E030E040E05FE30E94E5
:101CD000362787FD10E0212F30E040E050E060E043
:101CE00070E080E090E0AE88BA8CC8A0DCA0EDA0E7
:101CF000FEA0082D1FA10E9435292E8B3A8F48A3E4
:101D00005CA36DA37EA3882E9FA320E030E040E07B
:101D10005FE3C301B2010E944725811103C0BE8960
:101D2000BE7FBE8B10E0B12CC12C912CD12CE12CAC
:101D3000F12C00E02E893A8D48A15CA16DA17EA115
:101D4000882D9FA1A9E00E944A29A9F0A4F03FEFA5
:101D5000231A330A10E0B12CC12C912CD12CE12C88
:101D6000F12C00E041E04E8B1A8E18A21CA21DA29D
:101D70001EA2812C1FA2C1018D599F4F512C25E01D
:101D8000622E712C873C910508F027C184E0682EF3
:101D9000712C23C1A30192016A897B898C899D8959
:101DA0000E944C2544CF0E94BE2559016A017B0147
:101DB000082F992E0E9430269B01AC01C301B2016D
:101DC0000E94DA242B013C0111E020E030E040E0E9
:101DD0005FE30E94362787FD10E0212F30E040E0CE
:101DE00050E060E070E080E090E0192D0E9435291D
:101DF000122FB32EC42E952ED62EE72EF82E092F95
:101E000020E030E040E05FE3C301B2010E944725DB
:101E1000811101C01E7F212F3B2D4C2D592D6D2D81
:101E20007E2D8F2D902F0E9430269B01AC016A8958
:101E30007B898C899D890E94472518160CF47ACFDE
:101E40002E893A8D48A15CA16DA17EA1882D9FA10C
:101E5000A1E00E943E292E8B3A8F48A35CA36DA37C
:101E60007EA3882E9FA35ECF37FC98CE2114310429
:101E700071F08E898170898BA30192016A897B89B7
:101E80008C899D890E944C2510E01AA69BCEA12C1E
:101E9000012B09F046C02E8D3F8D4A895B896C89E4
:101EA0007D89CE0101960E94750AF981FE8B2A81F7
:101EB0002A8F3B8138A34C814CA35D815DA38E8129
:101EC0008EA38F8098859FA31985BA84CB849C8428
:101ED000DD84EE84FF8408892DCF2E8D3F8D4A89C5
:101EE0005B896C897D89CE0101960E94750AA98162
:101EF000AE8BBA81BA8FEB81E8A3FC81FCA32D8164
:101F00002DA33E813EA38F8048854FA31985BA84B7
:101F1000CB849C84DD84EE84FF84088927C0012B58
:101F2000E1F24A895B896C897D8970582E8D3F8DDD
:101F3000CE0101960E94750AE981EE8BFA81FA8F33
:101F40002B8128A33C813CA34D814DA35E815EA3E0
:101F50008F8088858FA31985BA84CB849C84DD8487
:101F6000EE84FF840889AA2009F4E4CE68A479A449
:101F7000662498E07922A8A5B9A555245394B3FF07
:101F80002CC0BFEF2B163B0624F13101EFEF6E1A88
:101F90007E0A2E893A8D48A15CA16DA17EA1882D73
:101FA0009FA10E943026F301EE0FFF1FEE0FFF1FCF
:101FB000EA5FFD4F20813181428153810E94472594
:101FC000811107C02E8D3F8D215031093F8F2E8FFB
:101FD000130155245394712C612C88A599A5827006
:101FE00099279B8B8A8B98A591FF03C0611471047C
:101FF00041F4A9A9BAA9CD01861997096A167B06E9
:1020000010F090E080E0BE89B983EA8DEA83F8A100
:10201000FB832CA12C833DA13D834EA14E838F8257
:102020005FA158871987BA86CB869C86DD86EE86A7
:10203000FF86088BAEA9AF93BDA9BF93ECA9EF9320
:10204000FBA9FF9329A52F9338A53F939F938F93C7
:102050004F8D4F935E8D5F9388A98F939FA59F931C
:10206000AEA5AF93BDA5BF93ECA5EF93FBA5FF93E2
:1020700089809A80AB80BC80CD80DE80EF80F88440
:1020800009851A852B853C854D855E856F85788908
:1020900089890E94F4030FB6F894DEBF0FBECDBF4E
:1020A000511067C02C013FEF431A530A48A5E5E4DD
:1020B00045FFE5E62FEF3FEFAC016DA57EA58E2F26
:1020C000EBA5FCA51995A32CAA1CAA24AA1C6101A6
:1020D000E32CEE0CEE08FE2C0E2D1E2DFE2DEE2D0B
:1020E00091014E2D5E2D6E2D7E2D8E2D9E2DA0E00C
:1020F0000E944A293CF40E94D12869017A018B018F
:10210000F82FE92F1F9285E08F9321E0621A710862
:102110007F926F921F921F929AE0892E2F2F3E2F4F
:10212000A2016DA57EA58BA59CA50E9445020F90DE
:102130000F900F900F900F900F904A895B89452B5D
:10214000C1F09C01AFA5B8A92A1B3B0BE9A9FAA9CC
:102150002E173F0770F48C010F5F1F4F2FEF3FEFDB
:10216000AC016DA57EA580E2EBA5FCA51995C80183
:10217000E8CFE6960FB6F894DEBF0FBECDBFDF9175
:10218000CF911F910F91FF90EF90DF90CF90BF9074
:10219000AF909F908F907F906F905F904F903F9007
:1021A0002F9008952F923F924F925F926F927F925D
:1021B0008F929F92AF92BF92CF92DF92EF92FF9257
:1021C0000F931F93CF93DF93CDB7DEB7E7970FB68B
:1021D000F894DEBF0FBECDBF1C016AAB7BAB4CAB2E
:1021E0005DAB28013901CEAADFAA6501B82CA9018F
:1021F0009801C301B8010E944725882331F1EEA858
:10220000FFA803E010E029E632E04CA95DA96AA925
:102210007BA9C1010E94BB01E7960FB6F894DEBF0F
:102220000FBECDBFDF91CF911F910F91FF90EF9027
:10223000DF90CF90BF90AF909F908F907F906F90E6
:102240005F904F903F902F9008952FEF3FEF4FE713
:102250005FEFC301B8010E94472587FF07C0EEA8C2
:10226000FFA804E010E02DE632E0CFCF2FEF3FEFE4
:102270004FE75FE7C301B8010E94362718166CF4D8
:1022800004E010E020E632E0C2FC04C003E010E00D
:1022900025E632E0EEA8FFA8B8CF9E012F5F3F4FA2
:1022A0004901B11025C028E23BE64EE65EE4C301D9
:1022B000B8010E943627181654F028E23BE64EE695
:1022C0005EECC301B8010E94472587FF11C01F9231
:1022D0001F925601CEA8DFA8930182014CA95DA9E7
:1022E0006AA97BA9C1010E94360C0F900F9094CF70
:1022F000D2FC03C086E0E82EF12CF40110E000E0EF
:1023000080E332E1E316F10448F00F5F1F4F819341
:1023100091E0E91AF1080032110599F7BB2019F094
:102320001F930F93D6CF9701B301A201CE018196DF
:102330000E94750A1F930F939F928F92DF92CF9204
:102340002FA92F933EA93F93FF92EF928DA98F93D0
:102350009CA99F932BA92F933AA93F933F922F9229
:1023600089A09AA0ABA0BCA0CDA0DEA0EFA0F8A44D
:1023700009A51AA52BA53CA54DA55EA56FA578A915
:1023800089A90E94F4030FB6F894DEBF0FBECDBF3B
:1023900043CFCF92DF92EF92FF920F931F93CF9391
:1023A000DF93FC012081222309F44EC0EC018185DA
:1023B0009285019709F045C00E94C8080B891C89C5
:1023C0002D893E896B017C01C01AD10AE20AF30A09
:1023D00009811A812B813C81C016D106E206F306E1
:1023E00098F16B8B7C8B8D8B9E8B8B859C85AD85C3
:1023F000BE854D815E816F817885481B590B6A0BC4
:102400007B0B413051056105710549F48F3FFFEFAA
:102410009F07AF07BF0719F01882188A1F86019619
:10242000A11DB11D8B879C87AD87BE87E989FA897D
:10243000DF91CF911F910F91FF90EF90DF90CF90A0
:1024400019940E943208BACFDF91CF911F910F915A
:10245000FF90EF90DF90CF900895CF93DF93FC0132
:1024600021893289232BA9F0EC018185928501977E
:1024700099F40E94C8086B8B7C8B8D8B9E8B81E0BE
:1024800088831B861C861D861E8681E090E0988BC3
:102490008F87DF91CF9108950E943208ECCF2F9261
:1024A0003F924F925F926F927F928F929F92AF92E4
:1024B000BF92CF92DF92EF92FF920F931F93CF9331
:1024C000DF9300D01F92CDB7DEB79C838B836A0168
:1024D0007B01FC010084F185E02DFA83E983BF01D3
:1024E00090E080E00E9436264B015C01AC019B012C
:1024F000C701B6010E944C25EB81FC81228133810A
:10250000448155810E94DB242B013C01EB81FC813D
:1025100080819181068117810F5F1F4F178306838A
:102520001801220C331C220C331C280E391EA50165
:102530009401F10160817181828193810E944C2517
:102540009B01AC01C301B2010E94DA24EB81FC8142
:102550006283738384839583F101C082D182E28296
:10256000F38289819A8101970817190720F0EB817E
:10257000FC81178216820F900F900F900F90DF91C1
:10258000CF911F910F91FF90EF90DF90CF90BF9070
:10259000AF909F908F907F906F905F904F903F9003
:1025A0002F9008954F925F926F927F928F929F9299
:1025B000AF92BF92CF92DF92EF92FF92CF93DF93D1
:1025C00000D01F92CDB7DEB78BE20E94040661E017
:1025D000892B09F060E08BE20E942D0680919F0319
:1025E00090919C03992311F0813019F0823009F009
:1025F000D8C1809159058823E1F0109259050E94B5
:10260000C8086093550570935605809357059093BD
:10261000580510923305109234051092350510922A
:102620003605109237051092380510923905109230
:102630003A05C0903B05D0903C05E0903D05F090F8
:102640003E0520E030E0A901C701B6010E94472500
:10265000882309F46DC0E0914505F0914605A091ED
:102660004305B09144052D913D914D915C91608160
:102670007181828193810E94DA249B01AC01C701A0
:10268000B6010E94472587FF53C080914D05909168
:102690004E05A0914F05B0915005E0914705F0918E
:1026A000480580839183A283B3830E94C808609306
:1026B0005505709356058093570590935805609182
:1026C0001B0570911C0580911D0590911E050E94AF
:1026D000FA256536710514F064E670E080912403F4
:1026E00090E077FF02C070E060E0861797070CF07B
:1026F00058C161E08AE10E942D06809124038F5F1A
:10270000853608F050C1809324030F900F900F90EE
:102710000F90DF91CF91FF90EF90DF90CF90BF901F
:10272000AF909F908F907F906F905F904F900895A3
:10273000C0903F05D0904005E0904105F0904205E3
:1027400020E030E0A901C701B6010E944725882397
:1027500019F1E0914305F0914405A0914505B09130
:1027600046052D913D914D915C91608171818281F1
:1027700093810E94DA249B01AC01C701B6010E943B
:10278000472587FF09C08091490590914A05A0918E
:102790004B05B0914C0581CF0E94C808C0905505EB
:1027A000D0905605E0905705F09058054B015C011C
:1027B0008C189D08AE08BF08809151059091520574
:1027C000A0915305B091540588169906AA06BB0638
:1027D00008F475CF0E94C80860935505709356059C
:1027E0008093570590935805E0914505F091460573
:1027F000A0914305B09144052D913D914D915C917F
:1028000060817181828193810E94DA246B017C0155
:10281000C0925A05D0925B05E0925C05F0925D058E
:1028200040903705509038056090390570903A0512
:10283000C501B4010E94362669837A838B839C8309
:10284000A3019201C701B6010E94DB2420E030E021
:1028500040E05FE30E943B2729813A814B815C8104
:102860000E943B2720E030E04AE754E40E944C25D8
:10287000209133053091340540913505509136054E
:102880000E94DB244B015C01809233059092340559
:10289000A0923505B0923605A3019201C701B60199
:1028A0000E94DA2429813A814B815C810E944C2567
:1028B00020E030E04AE754E40E944C252B013C0123
:1028C00040925E0550925F056092600570926105CE
:1028D000C0923705D0923805E0923905F0923A055A
:1028E00020912705309128054091290550912A050E
:1028F000C701B6010E943B276B017C0120912B058B
:1029000030912C0540912D0550912E05C501B40143
:102910000E943B279B01AC01C701B6010E94DB244A
:102920006B017C0120912F053091300540913105DC
:1029300050913205C301B2010E943B279B01AC01BB
:10294000C701B6010E94DB244B015C01C090490520
:10295000D0904A05E0904B05F0904C059601A701F8
:102960000E94472587FD12C0C0904D05D0904E05AE
:10297000E0904F05F09050059601A701B401C50104
:102980000E943627181614F064017501E09147057E
:10299000F0914805C601D70180839183A283B38358
:1029A0008ECE60E0A7CE10922403AFCE1F93CF93BC
:1029B000DF93EC01162F8091A9039091AA03DC010B
:1029C000ED91FC910190F081E02D6BE119958091E2
:1029D000A9039091AA03DC01ED91FC910190F08193
:1029E000E02D612F19958091A9039091AA03FE0112
:1029F00001900020E9F73197AF014C1B5D0BDC0122
:102A0000ED91FC910280F381E02DBE01DF91CF9129
:102A10001F911994CF92DF92EF92FF920F931F9321
:102A2000CF93DF93EB017B0124E0E20EF11C8B01DD
:102A30006C01C61AD70AC601800F911F0E94D224CA
:102A4000F80181938F01EE15FF05A9F7CE01DF9103
:102A5000CF911F910F91FF90EF90DF90CF9008954D
:102A60002F923F924F925F926F927F928F929F929E
:102A7000AF92BF92CF92DF92EF92FF920F931F938C
:102A8000CF93DF93CDB7DEB72C970FB6F894DEBFA8
:102A90000FBECDBF8E010A5D1F4F312C212CACA182
:102AA000BDA18C91882309F4CFC31196BDA3ACA31B
:102AB000853251F07101BFEFEB1AFB0A2FEF3FEFA8
:102AC000A1016AA17BA1D1C0B12CA12C08C08D327B
:102AD00071F1803371F46894A0F8FDA3ECA3ECA12C
:102AE000FDA181918B3231F194F7803231F1833243
:102AF00039F190ED980F9A3030F5712C612CECA1E2
:102B0000FDA1819190ED980F9A3080F52AE0269DE5
:102B10007001279DF00C112430E3E31AF10837010E
:102B2000680E711C87FD7A94FDA3ECA3E8CF68942E
:102B3000A1F8D3CF6894A2F8D0CF6894A3F8CDCFF2
:102B40006894A4F8CACF712C612C8A3279F4C80138
:102B50000296D8016D907C9077FE05C06894A1F82C
:102B60007194619471088C01FDA3ECA3ECA1FDA10B
:102B700080818E3209F049C0CF0101966894B2F885
:102B8000218130ED320F3A30C0F4512C412CFC0140
:102B9000219130ED320F3A3098F53AE0349D7001D2
:102BA000359DF00C112480E3E81AF1082701420E4C
:102BB000511C27FD5A94CF01EACF2A3221F5C801D2
:102BC0000296D8014D905C9057FE02C0512C412CCA
:102BD000ECA1FDA13296FDA3ECA38C012CA13DA19B
:102BE0002F5F3F4FACA1BDA18C918C36C1F084F416
:102BF000883609F445C08A3679F02CA13DA116C06B
:102C00009DA38CA3EBCF9DA38CA3512C412CE6CF8D
:102C1000843711F08A3789F76894B1F807C0ECA1BE
:102C2000FDA181818C3629F16894B0F8F901819178
:102C3000FDA3ECA3853609F4DFC10CF0ABC08734EB
:102C400009F4DAC14CF5853409F4D6C10CF0B9C1E8
:102C5000853209F02FCF7101EFEFEE1AFE0A2FEF48
:102C60003FEFA1016AA17BA185E20E946C0A1701D6
:102C700016CFF3E0BF2A2CA13DA12E5F3F4FD6CF48
:102C8000ACA1BDA111968C91883619F06894A7F873
:102C9000CDCFB0ECAB2AEFCF823609F400C344F4B9
:102CA0006894A5F8883509F005CFF0E18F2E0EC0A5
:102CB000833609F4B8C1843609F0FCCEE894A4F850
:102CC000AAE08A2E893621F0843611F0F3EFAF2284
:102CD000B2FE02C0E894A0F895012227327089362E
:102CE00019F0843609F01CC1232B09F498C098010F
:102CF000285F3F4F3E832D83D801CC901196DC9006
:102D000011971296EC9012971396FC9013971496C5
:102D10009C9014971596AC91F801F681F983F8010F
:102D2000F781FF839601A701692D7A2F89819F2F53
:102D30000FE30E941A29B22F092D1A2FF981EF8172
:102D40009601A701B8018F2F9E2FA0E00E944A296B
:102D50003CF40E94D12869017A018B01F82FE92FF8
:102D6000BF92AF927F926F925F924F92AB2E2F2FB6
:102D70003E2FA1016AA17BA18CE69AE00E94450248
:102D80001C010F900F900F900F900F900F900D81DE
:102D90001E8185CE8F3609F47FC29CF4873609F4F4
:102DA0002BC10CF40EC1893609F488CF8E3609F098
:102DB00081CED801ED91FD918D01A6FE2AC220821F
:102DC0006ECE833709F477C11CF5803709F072CED7
:102DD00065016894C0F8D4F83801F2E06F0E711CF8
:102DE000D8010D911C910115110509F0F2C146E0C1
:102DF000E42EF12C05E010E029E732E0A1016AA100
:102E00007BA18CE69AE00E94BB011C01830147CEA6
:102E1000853709F453CF883709F447CF4BCEB0FE3E
:102E200047C098012C5F3F4F3E832D83D801CD9042
:102E3000DD90ED90FC90D701C6018827B7FD839502
:102E40009927AA27BB2789879A87AB87BC87D70191
:102E5000C601BB0F880B982FDC0189839A83AB8353
:102E6000BC83CF82D8869E2CBF2D0981102FF02FD6
:102E7000E02F9601A7016F2F702F802F9F2FA0E0CA
:102E80000E944A294CF40E94D1282F833887942E1F
:102E9000B52F8B01F82FE92FBF92AF927F926F92DF
:102EA0005F924F92A984CF80D884E92CFB2E5FCF0C
:102EB000D8011296BE83AD83D801A6FE2EC0EC9138
:102EC0000E2E000CFF0BBF2FBB1FBB27BB1FB983F0
:102ED0006F01EF2EEE0CEE08FE2C0E2D1E2D9E2CFB
:102EE000BE2D9F014E2D5E2D6E2D7E2D8E2D9E2D85
:102EF000A0E00E944A293CF40E94D12869017A018D
:102F00008B01982EB92FBF92AF927F926F925F92F2
:102F10004F92A980292D3B2F2CCFED91FC91D3CF3F
:102F2000F801232B19F13896FE83ED83D801CC905C
:102F30001196DC9011971296EC9012971396FC90D4
:102F4000139714969C91149715968C911597169635
:102F50002C91169717963C91BF92AF927F926F92E9
:102F60005F924F92A12C092F182F03CFB0FE16C0ED
:102F70003496FE83ED83D8010D911D912D913C91E6
:102F8000BF92AF927F926F925F924F92A12C680195
:102F9000790100E010E020E030E0EBCE3296FE83D5
:102FA000ED83D8010D911C91A6FC1127BF92AF9221
:102FB0007F926F925F924F92A12C6801E12CF12CCD
:102FC000E8CF863411F46894A5F8F8013496FA83B2
:102FD000E983D8010D911D912D913C91812C6301C4
:102FE0007201A1016AA17BA18CE69AE00E94D21035
:102FF0001C0109811A8153CD982F9F7D973419F4B4
:103000006894B3F88D7F853411F46894A5F8F801BD
:103010003496FA83E983D8010D911D912D913C914D
:1030200088248394DCCF4501B2E08B229924A1014E
:10303000CC24C394D12CA1FC17C0F12CE12CA1010C
:103040004E0D5F1D6701E2E0CE0ED11CFFEFEF1ABF
:10305000FF0AE614F70440F42FEF3FEF6AA17BA1CB
:1030600080E20E946C0AEBCF1A012FEF221A320A7B
:10307000780132E0E30EF11C2FEF3FEF6AA17BA154
:10308000D8018C910E946C0A892899F0C614D70443
:1030900080F481010F5F1F4F2FEF3FEFA1016AA165
:1030A0007BA180E20E946C0ABFEFCB1ADB0A1801F9
:1030B000EDCF8701F4CCF8013296FE83ED83D80181
:1030C0000D911C910115110579F46501730106E05C
:1030D00010E022E732E0A1016AA17BA18CE69AE030
:1030E0000E94BB011C0153CE92014114510411F402
:1030F0002FEF3FEFF80190E080E0AF014F5F5F4FAF
:103100006081662331F08217930719F00196FA0166
:10311000F4CFE01BF10B9501222734703A83298309
:10312000B2FE04C04E165F0608F4F201450132E01B
:10313000832299247F01A101A1FC15C02E1A3F0A08
:10314000A1014E0F5F1F7F018FEFE81AF80AE61505
:10315000F70548F42FEF3FEF6AA17BA180E20E94C0
:103160006C0AF701EDCF6A01C01AD10AA601400F1F
:10317000511FD8018D918D01882389F0E981FA8151
:10318000EF2B31F0920121503109452841F02901FE
:103190002FEF3FEF6AA17BA10E946C0AE7CF1A01D3
:1031A000892809F4F4CDE41AF50AC701820D931DAC
:1031B0008615970508F0EBCD81010F5F1F4F2FEFAC
:1031C0003FEFA1016AA17BA180E20E946C0A180175
:1031D000ECCFDF92CF921F92B6E0BF935F924F92F7
:1031E00030E1832EA12C6801E12CF12C00E010E0ED
:1031F00020E030E0A1016AA17BA18CE69AE00E9468
:1032000045021C010F900F900F900F900F900F90A0
:10321000FDCDA7FE03C03182208241CCB0FE08C0A4
:10322000C101B0E0A0E080839183A283B38337CC57
:10323000B1FEF1CF41012082918212821382148269
:103240001582168217822BCCA101EFEF2E163E06B7
:1032500011F44EEF5FEF2FEF3FEF6AA17BA180E00B
:103260000E946C0AC1012C960FB6F894DEBF0FBE07
:10327000CDBFDF91CF911F910F91FF90EF90DF9025
:10328000CF90BF90AF909F908F907F906F905F9006
:103290004F903F902F90089528E0822E17CD92E016
:1032A000892E14CDCF92DF92EF92FF920F931F934E
:1032B000CF93DF93CDB7DEB765970FB6F894DEBF37
:1032C0000FBECDBF8FE792E09F938F938E010F5F6C
:1032D0001F4F1F930F930E94301560E0C8010E949A
:1032E000D614809126058F93809125058F93809128
:1032F00024058F93809123058F9383E992E09F9318
:103300008F931F930F930E94301564E1C8010E94B0
:10331000D614F0909603E0909703D0909803C09055
:1033200099030FB6F894DEBF0FBECDBF2DEC3CEC79
:103330004CEC5EEBD701F6016B2F7A2F8F2F9E2F6F
:103340000E94362787FD3CC02DEC3CEC4CEC5EE344
:10335000D701F6016B2F7A2F8F2F9E2F0E944725C2
:10336000181674F11F921F921F921F928DE992E01E
:103370009F938F931F930F930E943015F801019034
:103380000020E9F7602F6E1B675DC8010E94D6140C
:103390000FB6F894DEBF0FBECDBF61E088E10E949A
:1033A0002D0665960FB6F894DEBF0FBECDBFDF9138
:1033B000CF911F910F91FF90EF90DF90CF900895E4
:1033C000CF92DF92EF92FF92D1CF1F920F920FB662
:1033D0000F9211242F933F938F939F93AF93BF939B
:1033E0008091A1039091A203A091A303B091A403A3
:1033F0003091A00323E0230F2D3768F126E8230F37
:103400000296A11DB11D2093A0038093A103909368
:10341000A203A093A303B093A4038091A50390916A
:10342000A603A091A703B091A8030196A11DB11D09
:103430008093A5039093A603A093A703B093A8033A
:10344000BF91AF919F918F913F912F910F900FBEA0
:103450000F901F9018950196A11DB11DD4CF1F92FA
:103460000F920FB60F9211240BB60F922F933F932A
:103470004F935F936F937F938F939F93AF93BF937C
:10348000EF93FF938BEA93E00E945209FF91EF9133
:10349000BF91AF919F918F917F916F915F914F916C
:1034A0003F912F910F900BBE0F900FBE0F901F906A
:1034B00018951F920F920FB60F9211240BB60F9210
:1034C0002F938F939F93EF93FF93E091BB03F09122
:1034D000BC038081E091C103F091C20382FD1DC055
:1034E00090818091C4038F5F8F732091C5038217F1
:1034F00041F0E091C403F0E0E555FC4F958F8093D7
:10350000C403FF91EF919F918F912F910F900BBE6C
:103510000F900FBE0F901F9018958081F2CF1F92D1
:103520000F920FB60F9211240BB60F922F933F9369
:103530004F935F936F937F938F939F93AF93BF93BB
:10354000EF93FF9388E494E00E945209FF91EF917A
:10355000BF91AF919F918F917F916F915F914F91AB
:103560003F912F910F900BBE0F900FBE0F901F90A9
:1035700018951F920F920FB60F9211240BB60F924F
:103580002F938F939F93EF93FF93E0915804F091C3
:1035900059048081E0915E04F0915F0482FD1DC0BA
:1035A0009081809161048F5F8F73209162048217F4
:1035B00041F0E0916104F0E0E85BFB4F958F809370
:1035C0006104FF91EF919F918F912F910F900BBE0E
:1035D0000F900FBE0F901F9018958081F2CF1F9211
:1035E0000F920FB60F9211240BB60F922F933F93A9
:1035F0004F935F936F937F938F939F93AF93BF93FB
:10360000EF93FF938091B900887F803609F44DC015
:1036100008F040C0883209F4A7C028F5803109F4C9
:103620009BC0C8F4882309F4F1C0883009F494C021
:10363000FF91EF91BF91AF919F918F917F916F918A
:103640005F914F913F912F910F900BBE0F900FBE46
:103650000F901F901895883109F486C0803241F789
:103660008093690314C0803409F497C040F4803318
:10367000B9F38833E9F68093690385ECA8C08035F7
:1036800009F481C0883509F490C0883489F60E9415
:103690000E0ACECF883909F486C038F5883729F06C
:1036A00050F4883611F0803719F683E080936A036E
:1036B0001092680355C0883809F475C0803919F034
:1036C000803809F0B5CF80916803803208F06BC074
:1036D000E091680381E08E0F809368038091BB00C6
:1036E000F0E0E85BFC4F80833BC0803B39F0D0F4D6
:1036F000803A09F471C0883A09F09ACF84E0809347
:103700006A031092470310924603F0E0E0E0199537
:103710008091460381110FC081E08093460310928F
:10372000260309C0803C09F4A8CF883C09F4A5CF42
:10373000883B09F07DCFE091470381E08E0F8093B5
:103740004703F0E0EA5DFC4F80818093BB009091DD
:1037500047038091460325C080916F038093BB008F
:1037600085EC8093BC0064CF90916E0380916D03D3
:10377000981728F5E0916E0381E08E0F80936E0319
:10378000F0E08081EBCFE0916E0381E08E0F8093BB
:103790006E038091BB00F0E0808390916E03809176
:1037A0006D039817E8F285E8DCCFE0916E0381E0C5
:1037B0008E0F80936E038091BB00F0E08083809138
:1037C0006C03811164CF81E080936B0384EA809362
:1037D000BC0010926A032CCF85EC8093BC00109241
:1037E0006A0380916803803230F4E0916803F0E06E
:1037F000E85BFC4F10826091680370E088E493E01E
:10380000F0E0E0E019951092680312CF109269037E
:103810003ECFCF92DF92EF92FF920F931F931092C1
:10382000AE031092AD0348EE53E060E070E04093C9
:10383000AF035093B0036093B1037093B20382E57A
:1038400092E09093AC038093AB0325E331E0309397
:10385000B8032093B70324E331E03093BA032093F5
:10386000B90320E331E03093BC032093BB0321E391
:1038700031E03093BE032093BD0322E331E0309367
:10388000C0032093BF0326E331E03093C2032093AB
:10389000C1031092C4031092C5031092C603109284
:1038A000C70310924B0410924A0440934C04509367
:1038B0004D0460934E0470934F0490934904809399
:1038C000480485EC90E0909355048093540484EC74
:1038D00090E0909357048093560480EC90E090938E
:1038E00059048093580481EC90E090935B0480939A
:1038F0005A0482EC90E090935D0480935C0486EC23
:1039000090E090935F0480935E04109261041092A3
:103910006204109263041092640410928305109262
:103920008205109285051092840580E280938D05B2
:1039300087E180938E058FE1809390058EE18093DF
:103940008F05E6E7F2E0E491F0E0EE0FFF1FE45CA4
:10395000FD4F859194919093980580939705E6E0AB
:10396000F2E0E491E0939C05E4E7F2E0E491F0E01A
:10397000EE0FFF1FE45CFD4F8591949190939205AB
:1039800080939105E4E0F2E0E491E0939905E5E7A6
:10399000F2E0E491F0E0EE0FFF1FE453FE4F85915B
:1039A00094919093960580939505E5E0F2E0E4917B
:1039B000E0939A05EDE6F2E0E491F0E0EE0FFF1FF0
:1039C000E45CFD4F859194919093940580939305C9
:1039D000EDEFF1E0E491E0939B0580E492E4AFE049
:1039E000B0E08093860590938705A0938805B093F7
:1039F000890581E090E090938B0580938A0584E0AF
:103A000080938C0510929D0589E090E0909381054C
:103A10008093800584E290E00E946A298093780573
:103A200090937905FC018496119211921192119252
:103A30008E179F07C9F710927A0510927B05109296
:103A40007C0510927D058DE190E090937705809341
:103A5000760584E790E00E946A2980936E05909332
:103A60006F05FC018C589F4F119211921192119287
:103A7000E817F907C9F710927005109271051092B6
:103A800072051092730580916A0590916B05A09163
:103A90006C05B0916D054091660550916705609188
:103AA0006805709169050091620510916305209188
:103AB000640530916505E3E2F5E0F0934405E09399
:103AC0004305EFE1F5E0F0934605E0934505EBE1B2
:103AD000F5E0F0934805E0934705109249051092F0
:103AE0004A0510924B0510924C05C12CD12CE8ECE4
:103AF000EE2EE2E4FE2EC0924D05D0924E05E092ED
:103B00004F05F09250050093270510932805209348
:103B1000290530932A0540932B0550932C0560937B
:103B20002D0570932E0580932F0590933005A0935B
:103B30003105B093320548EE53E060E070E0409309
:103B4000510550935205609353057093540581E0DD
:103B500090E090930A0580930905409301055093E6
:103B600002056093030570930405109205051092F9
:103B7000060510920705109208052BE536E03093F4
:103B80001205209311051092000510921305109252
:103B90001405109215051092160510920B0510923F
:103BA0000C0510920D0510920E059093EF04809372
:103BB000EE0484E690E0A0E0B0E08093E604909309
:103BC000E704A093E804B093E9041092EA04109289
:103BD000EB041092EC041092ED0482ED92E19093CC
:103BE000F7048093F6041092E5041092F804109202
:103BF000F9041092FA041092FB041092F00410924F
:103C0000F1041092F2041092F3041F910F91FF90AF
:103C1000EF90DF90CF900895CF93DF93CDB7DEB7CD
:103C200064970FB6F894DEBF0FBECDBF789484B50D
:103C3000836084BD85B5836085BD80916E008160A1
:103C400080936E0082E0809381008091810081608A
:103C500080938100809180008160809380008091BA
:103C6000B10084608093B1008091B0008160809346
:103C7000B0008091910083608093910080919000CA
:103C80008160809390008091A10083608093A10067
:103C90008091A00081608093A000809121018360C9
:103CA000809321018091200181608093200187E829
:103CB00080937A001092C10010929F0380918D052D
:103CC0008F3F41F061E00E94B90661E080918D056F
:103CD0000E942D068091820590918305892B09F41D
:103CE00066C41FB7F89480917003811127C0EBE878
:103CF000F2E08491EBE1F2E09491E82FF0E0EE0F36
:103D0000FF1FE45AFE4FA591B491EC91E92321F4F1
:103D100061E085E30E942D0661E085E30E94B9061B
:103D20008CB580618CBD8CB580648CBD61E084E312
:103D30000E94B90661E083E30E94B9068091700396
:103D40008F5F809370031FBF81E080939D050E9469
:103D50000508682F6F7E80E00E94D10780E00E94F6
:103D600024080E940508682F6F7B80E00E94D1071D
:103D700060E086E00E94D10760E085E00E94D10704
:103D80006FEF84E00E94D1076FEF83E00E94D107BC
:103D90000E941C08E091BB03F091BC0382E0808389
:103DA000E091B703F091B8031082E091B903F0916C
:103DB000BA038FEC80831092C303E091BF03F091AC
:103DC000C00386E08083E091BD03F091BE03808153
:103DD00088698083E091BD03F091BE0380818F7D6F
:103DE00080838BEA93E09093AA038093A9030E94B7
:103DF0008B0161E081E30E94B90661E080E30E94EB
:103E0000B90661E08FE20E94B90661E08EE20E948D
:103E1000B90661E08DE20E94B90661E08CE20E9481
:103E2000B90661E08BE20E94B90661E08AE20E9475
:103E3000B90661E08AE20E94B90660E081E30E946F
:103E40002D0660E080E30E942D0660E08FE20E9474
:103E50002D0660E08EE20E942D0660E08DE20E9459
:103E60002D0660E08CE20E942D0660E08BE20E944D
:103E70002D0660E08AE20E942D0660E08DE10E943E
:103E80002D0660E087E20E942D0661E08DE10E9430
:103E9000B90661E087E20E94B90661E088E10E940C
:103EA000B90661E088E10E942D0660E089E10E9488
:103EB000B90660E08BE10E94B90661E089E10E94E9
:103EC0002D0661E08BE10E942D0661E08AE10E94EF
:103ED000B90661E08CE10E94B90660E08AE10E94C7
:103EE0002D0660E08CE10E942D0610928D03109249
:103EF0008C0368E873E090E080E00E940A1580E09F
:103F000090E0A2EFB2E48093880390938903A0939A
:103F10008A03B0938B0380931F0590932005A09391
:103F20002105B093220584E090E090938D03809367
:103F30008C0364E873E00E940A15812C912C80EABE
:103F4000A82E80E4B82E8092840390928503A092DC
:103F50008603B09287038092620590926305A092D7
:103F60006405B092650588E090E090938D0380939E
:103F70008C0360E873E00E940A159FE6C92E92E167
:103F8000D92E93E0E92E9CE3F92EC0928003D092C3
:103F90008103E0928203F0928303C0926605D0927F
:103FA0006705E0926805F09269058CE090E09093D7
:103FB0008D0380938C036CE773E00E940A151092C6
:103FC0007C0310927D0310927E0310927F03109267
:103FD0006A0510926B0510926C0510926D0580E1D8
:103FE00090E090938D0380938C0368E773E00E94C8
:103FF0000A1586E091E8A5E8BFE3809378039093E3
:104000007903A0937A03B0937B03809392039093F8
:104010009303A0939403B093950384E190E090936D
:104020008D0380938C0364E773E00E940A158FE38D
:1040300095E3AEE7BFE38093740390937503A09379
:104040007603B093770380938E0390938F03A093AE
:104050009003B09391038FE090E09093730380936B
:10406000720390939B0380939A038AE190E090936C
:104070008D0380938C030E94D224809371038092DD
:10408000270590922805A0922905B0922A05C09292
:104090002B05D0922C05E0922D05F0922E05109262
:1040A0002F05109230051092310510923205A501AE
:1040B000940160911F0570912005809121059091D8
:1040C00022050E94DA2460933B0570933C0580939F
:1040D0003D0590933E0560933F05709340058093A6
:1040E00041059093420580E095E00E942D128E01DB
:1040F0000F5F1F4F29EF222E22E0322E80E095E045
:104100000E94C91180917B00877F80937B0020E40F
:1041100020937C0080917A00806480937A00809163
:104120007A0086FDFCCF6091780070917900072EAF
:10413000000C880B990B0E94382620E030E040EA02
:104140005BE30E943B27AB01BC018EE695E00E9439
:104150004F1220E030E040EF50E460917005709124
:10416000710580917205909173050E943B272AE9A1
:1041700039E949E750E40E94DA242BE339EA45E8BB
:104180005FE30E943B2724EA3DE64CE75DE30E94A3
:10419000DB2420918E0330918F0340919003509146
:1041A00091030E943B27609396037093970380933B
:1041B0009803909399030E9489080E948908BC0182
:1041C00090E080E00E94362620E030E040E058E3B6
:1041D0000E943B2720E030E047ED53E40E943B275C
:1041E0004B015C012FE63DE646EC52EB0E943B277B
:1041F00026E133E843E957E30E94DB240E94AE271F
:1042000022E331E140E85BE30E94DA242FE735E066
:104210004BE955EB0E944C256B017C0120E030E01E
:10422000A9010E94362787FF70C020E030E048ECEB
:1042300052E4C501B4010E944C2520E030E048EC76
:1042400052E40E943B276B017C012BE532E44EE0F7
:1042500050E40E943B272FE135E042E753E40E94FF
:10426000DA242B013C01A7019601C701B6010E9487
:104270003B274B015C0124E338E749E25BE30E9402
:104280003B27A30192010E94DB242B013C01A501E5
:104290009401C701B6010E943B274B015C0126E057
:1042A0003FEE41EA56E30E943B279B01AC01C3016C
:1042B000B2010E94DA242B013C01A5019401C7013F
:1042C000B6010E943B274B015C0123E137E142EF3D
:1042D00052E30E943B279B01AC01C301B2010E9443
:1042E000DA242B013C01A5019401C701B6010E940B
:1042F0003B272BE339E947E25FE20E943B27A3011A
:1043000092010E94DB246B017C01B701A60188E7C2
:1043100095E00E944F12C0907A05D0907B05E09006
:104320007C05F0907D05A7019601C701B6010E94AA
:104330003B2723E13AE742EA59EB0E943B274B0136
:104340005C0120E83FE84EE85FE3C701B6010E9448
:104350003B279B01AC01C501B4010E94DB242BE289
:104360003CE346EA5FE30E94DA2420919203309115
:10437000930340919403509195030E943B276093CF
:1043800023057093240580932505909326058AE2E2
:104390000E94040661E0892B09F060E08AE20E9435
:1043A0002D0680E095E00E94C91185EE94E00E9400
:1043B000C91189E10E940406892B29F580919F0388
:1043C000811121C031E030939F0310929E0310921F
:1043D0009D030E94C8086B017C010E94C8086C19EB
:1043E0007D098E099F09683E734081059105A8F3F8
:1043F000B1E0B0939C0361E08CE10E942D0685EE54
:1044000094E00E942D128BE10E940406892B09F092
:104410004AC080919F038150833008F044C01092BD
:104420009F0361E088E10E942D061092E50410923E
:10443000F0041092F1041092F2041092F30410921E
:10444000F5041092F40460E08BE20E942D0660E017
:104450008AE10E942D0660E08CE10E942D068AE12F
:104460000E940406682F81E30E942D0610929C038F
:1044700060E088EA92E00E94D61464E18DEB92E05D
:104480000E94D6140E94C8086B017C010E94C808D3
:104490006C197D098E099F09683873418105910562
:1044A000A8F30E948B0180919F03813009F520E0E1
:1044B00030E040E85FE360911F0570912005809136
:1044C0002105909122050E94DA2420912305309144
:1044D000240540912505509126050E944725181670
:1044E0003CF010929E0310929D0382E080939F0304
:1044F00080919F038230C1F480919A0390919B0335
:104500004CE3489F9001499F300D112480919D03F9
:1045100090919E03821793073CF083E080939F0362
:1045200010929E0310929D0380919F038330B1F4FB
:1045300020E030E04CE852E46091230570912405BE
:1045400080912505909126050E94472587FF06C08A
:1045500010929F0310929E0310929D038091A903D5
:104560009091AA03DC01ED91FC910190F081E02D86
:1045700064E1199580919F03823009F4BAC08330B9
:1045800009F470C18130B9F10E9452198AE10E9488
:104590000406682F81E30E942D0688E10E9404062C
:1045A000682F8AE20E942D060E94E109A7CD61E0F2
:1045B00080918E050E94B90680918C058B7F60E00A
:1045C00009F061E080918E050E942D0680918F0593
:1045D0008F3F41F061E00E94B90661E080918F0554
:1045E0000E942D06809190058F3F09F4ADCB60E0CD
:1045F0000E94B906A9CB22ED32E03F932F931F937F
:104600000F930E94301560E0C8010E94D6142091DB
:104610009D0330919E03C9016CE370E00E94032862
:104620009F938F937F936F93C90160E17EE00E9417
:1046300003287F936F93AFEDB2E0BF93AF931F93C7
:104640000F930E9430156CE0C8010E94D61480912F
:1046500026058F93809125058F93809124058F9354
:10466000809123058F938EEE92E09F938F931F93FB
:104670000F930E94301564E1C8010E94D614809106
:1046800099038F93809198038F93809197038F93D1
:10469000809196038F933F922F921F930F930E94C6
:1046A0003015F80101900020E9F7602F6E1B675D5F
:1046B000C8010E94D61461E08CE10E942D060FB65D
:1046C000F894DEBF0FBECDBF20E030E042EC52E4F4
:1046D0006091230570912405809125059091260510
:1046E0000E94362760E087FD51CF88E10E942D06A9
:1046F0004DCF85E093E09F938F931F930F930E947C
:10470000301560E0C8010E94D61420919D033091BD
:104710009E03C9016CE370E00E9403289F938F936E
:104720007F936F93C90160E17EE00E9403287F932D
:104730006F932FED32E03F932F931F930F930E94BF
:1047400030156CE0C8010E94D614B0901F05A090EF
:1047500020059090210580902205F0902305E0909F
:104760002405D0902505C090260520E030E040E0EB
:104770005FE3D501F4016B2F7A2F8F2F9E2F0E94BC
:10478000DA240FB6F894DEBF0FBECDBFD701F60115
:104790002B2F3A2F4F2F5E2F0E94472518160CF40F
:1047A00044C020E030E040E05FE3D501F4016B2F2E
:1047B0007A2F8F2F9E2F0E94DB249B01AC01D70103
:1047C000F6016B2F7A2F8F2F9E2F0E9447251816E8
:1047D00064F18F929F92AF92BF9223E932E03F93B0
:1047E0002F931F930F930E94301564E1C8010E941C
:1047F000D61481E48F9380E78F931F921F923F928C
:104800002F921F930F930E943015F8010190002002
:10481000E9F7602F6E1B675DC8010E94D6140FB6C2
:10482000F894DEBF0FBECDBFB1CECF92DF92EF9234
:10483000FF922EEE32E03F932F931F930F930E942F
:10484000301564E1C8010E94D614809199038F93BA
:10485000809198038F93809197038F938091960313
:104860008F93CDCF22E133E03F932F931F930F938C
:104870000E94301560E0C8010E94D61410929C037B
:1048800020919D0330919E03C9016CE370E00E946A
:1048900003289F938F937F936F93C90160E17EE01C
:1048A0000E9403287F936F93AFEDB2E0BF93AF9365
:1048B0001F930F930E9430156CE0C8010E94D6141C
:1048C000809126058F93809125058F9380912405F3
:1048D0008F93809123058F9383E992E09F938F9329
:1048E0001F930F930E94301564E1C8010E94D614F3
:1048F000F0909603E0909703D0909803C0909903AE
:104900000FB6F894DEBF0FBECDBF20E030E040E729
:1049100051E4D701F6016B2F7A2F8F2F9E2F0E9423
:10492000362787FD31C081E48F9380E78F931F92F4
:104930001F923F922F921F930F930E943015F80100
:1049400001900020E9F7602F6E1B675DC8010E948F
:10495000D6140FB6F894DEBF0FBECDBF60E08CE179
:104960000E942D0620E030E04CEC52E460912305DB
:104970007091240580912505909126050E94472578
:1049800087FF04CE61E0B1CECF92DF92EF92FF922B
:10499000D0CF8091840590918505009711F00C94FB
:1049A000062A0895F999FECF92BD81BDF89A9927FC
:1049B00080B508955058BB27AA270E94F2240C9472
:1049C000FC260E94EE2638F00E94F52620F039F4ED
:1049D0009F3F19F426F40C94DB260EF4E095E7FBD8
:1049E0000C94D526E92F0E940D2758F3BA176207B9
:1049F00073078407950720F079F4A6F50C942F2708
:104A00000EF4E0950B2EBA2FA02D0B01B9019001E9
:104A10000C01CA01A0011124FF27591B99F0593F2D
:104A200050F4503E68F11A16F040A22F232F342F75
:104A30004427585FF3CF469537952795A795F040C3
:104A40005395C9F77EF41F16BA0B620B730B840BD8
:104A5000BAF09150A1F0FF0FBB1F661F771F881F90
:104A6000C2F70EC0BA0F621F731F841F48F48795E8
:104A700077956795B795F7959E3F08F0B0CF9395DA
:104A8000880F08F09927EE0F9795879508950E9453
:104A9000B12608F481E008950E9460250C94FC265C
:104AA0000E94F52658F00E94EE2640F029F45F3F60
:104AB00029F00C94D52651110C9430270C94DB2648
:104AC0000E940D2768F39923B1F3552391F3951BA9
:104AD000550BBB27AA2762177307840738F09F5F1F
:104AE0005F4F220F331F441FAA1FA9F335D00E2E8C
:104AF0003AF0E0E832D091505040E695001CCAF7F9
:104B00002BD0FE2F29D0660F771F881FBB1F2617BB
:104B100037074807AB07B0E809F0BB0B802DBF0192
:104B2000FF2793585F4F3AF09E3F510578F00C9461
:104B3000D5260C9430275F3FE4F3983ED4F3869556
:104B400077956795B795F7959F5FC9F7880F911D82
:104B50009695879597F90895E1E0660F771F881F6E
:104B6000BB1F621773078407BA0720F0621B730B21
:104B7000840BBA0BEE1F88F7E0950895BEE304D0CE
:104B800008F490E80895BFE322273327A9010E9483
:104B9000152760F19F5748F1B91740F1BFE3B91BE2
:104BA0009927B8503AF4660F771F881F991FB3955D
:104BB000D2F316C0B8504AF0232F342F452F562F6A
:104BC000672F782F8827B850BAF7B85F49F08695D5
:104BD000779567955795479537952795BA95B9F77E
:104BE00016F40E94DE2688940895889460E070E0B0
:104BF000CB0108950E9401266894B1110C943027CE
:104C000008950E94152788F09F5798F0B92F99278B
:104C1000B751B0F0E1F0660F771F881F991F1AF0A7
:104C2000BA95C9F714C0B13091F00E942F27B1E0B6
:104C300008950C942F27672F782F8827B85F39F0B5
:104C4000B93FCCF3869577956795B395D9F73EF440
:104C500090958095709561957F4F8F4F9F4F0895E8
:104C600097FB16F40E94DE260C947426E89409C083
:104C700097FB3EF490958095709561957F4F8F4F8F
:104C80009F4F9923A9F0F92F96E9BB279395F695A5
:104C9000879577956795B795F111F8CFFAF4BB0F23
:104CA00011F460FF1BC06F5F7F4F8F4F9F4F16C087
:104CB000882311F096E911C0772321F09EE8872F11
:104CC000762F05C0662371F096E8862F70E060E0CD
:104CD0002AF09A95660F771F881FDAF7880F969546
:104CE000879597F90895E894F92F96EBFF2381F0C3
:104CF000121613061406440B9395F695879577952F
:104D0000679557954040FF23B9F71BC09927089531
:104D1000882351F49850D2F7872B762F652F542F84
:104D2000432F322F20E0B1F3121613061406440B62
:104D300088233AF09A95440F551F661F771F881FE6
:104D4000CAF755234AF4440F551F11F460FF04C0FD
:104D50006F5F7F4F8F4F9F4F880F9695879597F97D
:104D60000895990F0008550FAA0BE0E8FEEF1616FC
:104D70001706E807F907C0F012161306E407F5074F
:104D800098F0621B730B840B950B39F40A2661F0C3
:104D9000232B242B252B21F408950A2609F4A14066
:104DA000A6958FEF811D811D089597F99F6780E873
:104DB00070E060E008959FEF80EC089590958095F5
:104DC0007095609550954095309521953F4F4F4F88
:104DD0005F4F6F4F7F4F8F4F9F4F089500240A946E
:104DE0001616170618060906089500240A941216C6
:104DF0001306140605060895092E0394000C11F4F9
:104E0000882352F0BB0F40F4BF2B11F460FF04C0A5
:104E10006F5F7F4F8F4F9F4F089557FD9058440FFE
:104E2000551F59F05F3F71F04795880F97FB991F09
:104E300061F09F3F79F087950895121613061406C6
:104E4000551FF2CF4695F1DF08C016161706180653
:104E5000991FF1CF86957105610508940895E8942E
:104E6000BB2766277727CB0197F908950E94B126C3
:104E700008F48FEF08950E944E270C94FC260E94A0
:104E8000EE2638F00E94F52620F0952311F00C94C0
:104E9000D5260C94DB2611240C9430270E940D2774
:104EA00070F3959FC1F3950F50E0551F629FF0017D
:104EB000729FBB27F00DB11D639FAA27F00DB11D96
:104EC000AA1F649F6627B00DA11D661F829F22271F
:104ED000B00DA11D621F739FB00DA11D621F839FA6
:104EE000A00D611D221F749F3327A00D611D231F7C
:104EF000849F600D211D822F762F6A2F11249F57CA
:104F000050409AF0F1F088234AF0EE0FFF1FBB1FCC
:104F1000661F771F881F91505040A9F79E3F51058B
:104F200080F00C94D5260C9430275F3FE4F3983E34
:104F3000D4F3869577956795B795F795E7959F5F35
:104F4000C1F7FE2B880F911D9695879597F90895C7
:104F500019F416F40C94DB260C94EE270E94152706
:104F6000B8F39923C9F3B6F39F57550B87FF0E94F7
:104F7000FC270024A0E640EA9001805856959795BA
:104F800028F4805C660F771F881F20F026173707EC
:104F9000480730F4621B730B840B202931294A2BFC
:104FA000A69517940794202531254A2758F7660FB0
:104FB000771F881F20F026173707480730F4620B49
:104FC000730B840B200D311D411DA09581F7B90194
:104FD000842F9158880F9695879508959F3F31F0BB
:104FE000915020F4879577956795B795880F911D17
:104FF0009695879597F9089591505040660F771FC1
:10500000881FD2F7089597FB072E16F4009407D057
:1050100077FD09D00E94562907FC05D03EF49095F3
:1050200081959F4F0895709561957F4F0895A1E2F6
:105030001A2EAA1BBB1BFD010DC0AA1FBB1FEE1F12
:10504000FF1FA217B307E407F50720F0A21BB30B5D
:10505000E40BF50B661F771F881F991F1A9469F7D9
:1050600060957095809590959B01AC01BD01CF0135
:105070000895EE0FFF1F881F8BBF0790F691E02D5C
:105080001994689401C0E894F92FF12B12F00C9454
:105090007528A0E0B0E0EFE4F8E20C94E728092ED0
:1050A000059422F40E94D128112392F4F0E80F26EF
:1050B000FFEFE094F09400951095B094C094D094D4
:1050C000A194BF0ACF0ADF0AEF0AFF0A0F0B1F0BDA
:1050D0000E94802807FC0E94D128CDB7DEB7ECE003
:1050E0000C940329689401C0E8948F929F92CF9307
:1050F000DF930E948028DF91CF919F908F90089539
:1051000088249924F401E401B0E49F93AA279A1516
:105110008B049C04ED05FE05CF05D007A10798F48C
:10512000AD2FDC2FCF2FFE2FE92D982C892E982F15
:10513000872F762F652F542F432F322F2227B850D9
:1051400031F7BF9127C01B2EBF91BB27220F331F02
:10515000441F551F661F771F881F991F881C991CA5
:10516000EE1FFF1FCC1FDD1FAA1FBB1F8A149B044D
:10517000EC05FD05CE05DF05A007B10748F08A184C
:105180009B08EC09FD09CE09DF09A00BB10B2160DA
:105190001A94E1F62EF49401AF01BE01CD01000C8A
:1051A00008956095709580959095309540955095AF
:1051B00021953F4F4F4F5F4F6F4F7F4F8F4F9F4F07
:1051C00008952F923F924F925F926F927F928F92AB
:1051D0009F92AF92BF92CF92DF92EF92FF920F9386
:1051E0001F93CF93DF93CDB7DEB7CA1BDB0B0FB690
:1051F000F894DEBF0FBECDBF19942A88398848883D
:105200005F846E847D848C849B84AA84B984C884E2
:10521000DF80EE80FD800C811B81AA81B981CE0FD9
:10522000D11D0FB6F894DEBF0FBECDBFED010895BE
:1052300097FD1094002E083098F00850232F342F3B
:10524000452F562F672F782F892F912DF4CF159446
:1052500097958795779567955795479537952795AE
:105260000A95AAF71124002D08952A0D3B1D4C1D07
:105270005D1D6E1D7F1D801F911F08950024A7FDD9
:1052800000942A0F301D401D501D601D701D801D93
:10529000901D08950024A7FD00942A1730054005AD
:1052A000500560057005800590050895AA1BBB1B7D
:1052B00051E107C0AA1FBB1FA617B70710F0A61B16
:1052C000B70B881F991F5A95A9F780959095BC0137
:1052D000CD0108950F931F93CF93DF9382309105F3
:1052E00010F482E090E0E091A005F091A10530E09B
:1052F00020E0B0E0A0E0309799F42115310509F4E1
:105300004AC0281B390B24303105D8F58A819B818E
:105310006115710589F1FB0193838283FE0111C040
:10532000408151810281138148175907E0F04817E5
:10533000590799F4109761F012960C9312971396EF
:105340001C933296CF01DF91CF911F910F91089559
:105350000093A0051093A105F4CF2115310551F05C
:105360004217530738F0A901DB019A01BD01DF01A3
:10537000F801C1CFEF01F9CF9093A1058093A0056B
:10538000CDCFFE01E20FF31F81939193225031099B
:1053900039832883D7CF20919E0530919F05232BF9
:1053A00041F4209102023091030230939F05209333
:1053B0009E0520910002309101022115310541F432
:1053C0002DB73EB74091040250910502241B350BC6
:1053D000E0919E05F0919F05E217F307A0F42E1BC4
:1053E0003F0B2817390778F0AC014E5F5F4F241749
:1053F000350748F04E0F5F1F50939F0540939E0561
:10540000819391939FCFF0E0E0E09CCFCF93DF9327
:105410000097E9F0FC01329713821282A091A00557
:10542000B091A105ED0130E020E01097A1F42081BA
:105430003181820F931F20919E0530919F0528177F
:10544000390709F061C0F0939F05E0939E05DF9155
:10545000CF910895EA01CE17DF07E8F54A815B8115
:105460009E0141155105B1F7E901FB83EA8349919A
:105470005991C40FD51FEC17FD0761F4808191810C
:105480000296840F951FE901998388838281938115
:105490009B838A83F0E0E0E012968D919C911397B4
:1054A0000097B9F52D913C911197CD010296820F8D
:1054B000931F20919E0530919F052817390739F6D3
:1054C000309751F51092A1051092A005B0939F0559
:1054D000A0939E05BCCFD383C28340815181840FAA
:1054E000951FC817D90761F44E5F5F4F8881998176
:1054F000480F591F518340838A819B819383828304
:105500002115310509F0B0CFF093A105E093A00576
:105510009ECFFD01DC01C0CF13821282D7CF11E0F4
:10552000C7E5D1E000E006C0802FFE010E943928C7
:105530002196011DC835D10780E00807A9F7F89426
:02554000FFCF9B
:105542000000A20580000000803F00002041000012
:10555200C84200007A4400401C460050C347002461
:1055620074498096184B20BCBE4C286B6E4EF902D3
:105572001550B743BA51A5D46853E784115521E6B3
:10558200B556A95F6358CA1B0E5ABCA2B15B000094
:1055920000007409D4080109C1093209100924095B
:1055A200666E692B00666E69006E616E00666E69DA
:1055B2002D00296C6C756E2800296C696E28004CD0
:1055C2006973746F2020202020202020202020209A
:1055D20020200025312E3166204320200020253155
:1055E2002E316620507369004349434C4F20494E87
:1055F20054455252554D5049444F202000504F526D
:10560200205553554152494F202020202020202050
:10561200200043616C656E74616E646F202000250A
:105622003032643A253032643A2530326400253112
:105632002E31662043202020002025312E31662085
:1056420050736920004573746572696C697A2E2003
:0E5652002000456E667269616E646F20200054
:00000001FF
